{
  "contracts/DefiBridgeProxy.sol": {
    "DefiBridgeProxy": {
      "abi": [
        {
          "anonymous": false,
          "inputs": [
            {
              "indexed": true,
              "internalType": "address",
              "name": "bridgeAddress",
              "type": "address"
            },
            {
              "indexed": false,
              "internalType": "uint256",
              "name": "outputValueA",
              "type": "uint256"
            },
            {
              "indexed": false,
              "internalType": "uint256",
              "name": "outputValueB",
              "type": "uint256"
            },
            {
              "indexed": false,
              "internalType": "bool",
              "name": "isAsync",
              "type": "bool"
            }
          ],
          "name": "AztecBridgeInteraction",
          "type": "event"
        },
        {
          "inputs": [
            {
              "internalType": "address",
              "name": "bridgeAddress",
              "type": "address"
            },
            {
              "internalType": "uint256",
              "name": "interactionNonce",
              "type": "uint256"
            }
          ],
          "name": "canFinalise",
          "outputs": [
            {
              "internalType": "bool",
              "name": "ready",
              "type": "bool"
            }
          ],
          "stateMutability": "view",
          "type": "function"
        },
        {
          "inputs": [
            {
              "internalType": "address",
              "name": "bridgeAddress",
              "type": "address"
            },
            {
              "components": [
                {
                  "internalType": "uint256",
                  "name": "id",
                  "type": "uint256"
                },
                {
                  "internalType": "address",
                  "name": "erc20Address",
                  "type": "address"
                },
                {
                  "internalType": "enum Types.AztecAssetType",
                  "name": "assetType",
                  "type": "uint8"
                }
              ],
              "internalType": "struct Types.AztecAsset",
              "name": "inputAssetA",
              "type": "tuple"
            },
            {
              "components": [
                {
                  "internalType": "uint256",
                  "name": "id",
                  "type": "uint256"
                },
                {
                  "internalType": "address",
                  "name": "erc20Address",
                  "type": "address"
                },
                {
                  "internalType": "enum Types.AztecAssetType",
                  "name": "assetType",
                  "type": "uint8"
                }
              ],
              "internalType": "struct Types.AztecAsset",
              "name": "inputAssetB",
              "type": "tuple"
            },
            {
              "components": [
                {
                  "internalType": "uint256",
                  "name": "id",
                  "type": "uint256"
                },
                {
                  "internalType": "address",
                  "name": "erc20Address",
                  "type": "address"
                },
                {
                  "internalType": "enum Types.AztecAssetType",
                  "name": "assetType",
                  "type": "uint8"
                }
              ],
              "internalType": "struct Types.AztecAsset",
              "name": "outputAssetA",
              "type": "tuple"
            },
            {
              "components": [
                {
                  "internalType": "uint256",
                  "name": "id",
                  "type": "uint256"
                },
                {
                  "internalType": "address",
                  "name": "erc20Address",
                  "type": "address"
                },
                {
                  "internalType": "enum Types.AztecAssetType",
                  "name": "assetType",
                  "type": "uint8"
                }
              ],
              "internalType": "struct Types.AztecAsset",
              "name": "outputAssetB",
              "type": "tuple"
            },
            {
              "internalType": "uint256",
              "name": "totalInputValue",
              "type": "uint256"
            },
            {
              "internalType": "uint256",
              "name": "interactionNonce",
              "type": "uint256"
            },
            {
              "internalType": "uint256",
              "name": "auxInputData",
              "type": "uint256"
            }
          ],
          "name": "convert",
          "outputs": [
            {
              "internalType": "uint256",
              "name": "outputValueA",
              "type": "uint256"
            },
            {
              "internalType": "uint256",
              "name": "outputValueB",
              "type": "uint256"
            },
            {
              "internalType": "bool",
              "name": "isAsync",
              "type": "bool"
            }
          ],
          "stateMutability": "nonpayable",
          "type": "function"
        },
        {
          "inputs": [
            {
              "internalType": "address",
              "name": "bridgeAddress",
              "type": "address"
            },
            {
              "components": [
                {
                  "internalType": "uint256",
                  "name": "id",
                  "type": "uint256"
                },
                {
                  "internalType": "address",
                  "name": "erc20Address",
                  "type": "address"
                },
                {
                  "internalType": "enum Types.AztecAssetType",
                  "name": "assetType",
                  "type": "uint8"
                }
              ],
              "internalType": "struct Types.AztecAsset",
              "name": "inputAssetA",
              "type": "tuple"
            },
            {
              "components": [
                {
                  "internalType": "uint256",
                  "name": "id",
                  "type": "uint256"
                },
                {
                  "internalType": "address",
                  "name": "erc20Address",
                  "type": "address"
                },
                {
                  "internalType": "enum Types.AztecAssetType",
                  "name": "assetType",
                  "type": "uint8"
                }
              ],
              "internalType": "struct Types.AztecAsset",
              "name": "inputAssetB",
              "type": "tuple"
            },
            {
              "components": [
                {
                  "internalType": "uint256",
                  "name": "id",
                  "type": "uint256"
                },
                {
                  "internalType": "address",
                  "name": "erc20Address",
                  "type": "address"
                },
                {
                  "internalType": "enum Types.AztecAssetType",
                  "name": "assetType",
                  "type": "uint8"
                }
              ],
              "internalType": "struct Types.AztecAsset",
              "name": "outputAssetA",
              "type": "tuple"
            },
            {
              "components": [
                {
                  "internalType": "uint256",
                  "name": "id",
                  "type": "uint256"
                },
                {
                  "internalType": "address",
                  "name": "erc20Address",
                  "type": "address"
                },
                {
                  "internalType": "enum Types.AztecAssetType",
                  "name": "assetType",
                  "type": "uint8"
                }
              ],
              "internalType": "struct Types.AztecAsset",
              "name": "outputAssetB",
              "type": "tuple"
            },
            {
              "internalType": "uint256",
              "name": "interactionNonce",
              "type": "uint256"
            },
            {
              "internalType": "uint256",
              "name": "auxInputData",
              "type": "uint256"
            }
          ],
          "name": "finalise",
          "outputs": [
            {
              "internalType": "uint256",
              "name": "outputValueA",
              "type": "uint256"
            },
            {
              "internalType": "uint256",
              "name": "outputValueB",
              "type": "uint256"
            }
          ],
          "stateMutability": "nonpayable",
          "type": "function"
        },
        {
          "stateMutability": "payable",
          "type": "receive"
        }
      ],
      "evm": {
        "bytecode": {
          "linkReferences": {},
          "object": "608060405234801561001057600080fd5b50610ce5806100206000396000f3fe6080604052600436106100385760003560e01c806379b5080f14610044578063cc0735571461007a578063d9b5fb79146100a85761003f565b3661003f57005b600080fd5b34801561005057600080fd5b5061006461005f3660046109a6565b6100d7565b6040516100719190610aa8565b60405180910390f35b34801561008657600080fd5b5061009a610095366004610892565b610160565b604051610071929190610c78565b3480156100b457600080fd5b506100c86100c3366004610912565b610468565b60405161007193929190610c86565b604051637224f4eb60e01b815260009083906001600160a01b03821690637224f4eb90610108908690600401610c6f565b60206040518083038186803b15801561012057600080fd5b505afa158015610134573d6000803e3d6000fd5b505050506040513d601f19601f8201168201806040525081019061015891906109d0565b949350505050565b6000808080600361017760608a0160408b016109ec565b600381111561018257fe5b146101a25761019f61019a60408a0160208b01610870565b610794565b91505b60036101b46060890160408a016109ec565b60038111156101bf57fe5b146101da576101d761019a6040890160208a01610870565b90505b604051637224f4eb60e01b81528b906001600160a01b03821690637224f4eb90610208908a90600401610c6f565b60206040518083038186803b15801561022057600080fd5b505afa158015610234573d6000803e3d6000fd5b505050506040513d601f19601f8201168201806040525081019061025891906109d0565b61027d5760405162461bcd60e51b815260040161027490610aff565b60405180910390fd5b604051634d83e9a160e11b81526001600160a01b03821690639b07d342906102b3908e908e908e908e908e908e90600401610c15565b6040805180830381600087803b1580156102cc57600080fd5b505af11580156102e0573d6000803e3d6000fd5b505050506040513d601f19601f820116820180604052508101906103049190610a07565b9095509350600361031b60608b0160408c016109ec565b600381111561032657fe5b1415801561034f5750600061034160608b0160408c016109ec565b600381111561034c57fe5b14155b1561038e5761037061036a61019a60408c0160208d01610870565b846107d3565b851461038e5760405162461bcd60e51b815260040161027490610b6d565b60036103a060608a0160408b016109ec565b60038111156103ab57fe5b141580156103d4575060006103c660608a0160408b016109ec565b60038111156103d157fe5b14155b15610413576103f56103ef61019a60408b0160208c01610870565b836107d3565b84146104135760405162461bcd60e51b815260040161027490610b6d565b8b6001600160a01b03167f1f69dd4d25d71e16962ebbdc1534be51b469874ca1bc8cf79ab171635fddad488686600060405161045193929190610c86565b60405180910390a250505097509795505050505050565b60008080600261047e60608c0160408d016109ec565b600381111561048957fe5b14156104a9576104a96104a260408c0160208d01610870565b8c88610800565b60026104bb60608b0160408c016109ec565b60038111156104c657fe5b14156104df576104df6104a260408b0160208c01610870565b60008060036104f460608c0160408d016109ec565b60038111156104ff57fe5b1461051a5761051761019a60408c0160208d01610870565b91505b600361052c60608b0160408c016109ec565b600381111561053757fe5b146105525761054f61019a60408b0160208c01610870565b90505b8c6001600160a01b038116635254162b60018f604001602081019061057791906109ec565b600381111561058257fe5b1461058e576000610590565b8a5b8f8f8f8f8f8f8f6040518963ffffffff1660e01b81526004016105b99796959493929190610bb3565b6060604051808303818588803b1580156105d257600080fd5b505af11580156105e6573d6000803e3d6000fd5b50505050506040513d601f19601f8201168201806040525081019061060b9190610a2a565b91975095509350600361062460608d0160408e016109ec565b600381111561062f57fe5b141580156106585750600061064a60608d0160408e016109ec565b600381111561065557fe5b14155b156106915761067361036a61019a60408e0160208f01610870565b86146106915760405162461bcd60e51b815260040161027490610b6d565b60036106a360608c0160408d016109ec565b60038111156106ae57fe5b141580156106d7575060006106c960608c0160408d016109ec565b60038111156106d457fe5b14155b15610710576106f26103ef61019a60408d0160208e01610870565b85146107105760405162461bcd60e51b815260040161027490610b6d565b831561073e5785158015610722575084155b61073e5760405162461bcd60e51b815260040161027490610ab3565b8d6001600160a01b03167f1f69dd4d25d71e16962ebbdc1534be51b469874ca1bc8cf79ab171635fddad4887878760405161077b93929190610c86565b60405180910390a2505050985098509895505050505050565b60008161079f575030315b81156107ce576040516370a0823160e01b8152306004820152602081602483865afa6107ca57600080fd5b5190505b919050565b6000828211156107f55760405162461bcd60e51b815260040161027490610b36565b508082035b92915050565b60405163a9059cbb60e01b81528260048201528160248201526000816044836000885af161082d57600080fd5b50505050565b80356001600160a01b03811681146107fa57600080fd5b8035600481106107fa57600080fd5b60006060828403121561086a578081fd5b50919050565b600060208284031215610881578081fd5b61088b8383610833565b9392505050565b60008060008060008060006101e0888a0312156108ad578283fd5b6108b78989610833565b96506108c68960208a01610859565b95506108d58960808a01610859565b94506108e48960e08a01610859565b93506108f4896101408a01610859565b92506101a088013591506101c0880135905092959891949750929550565b600080600080600080600080610200898b03121561092e578081fd5b88356001600160a01b0381168114610944578182fd5b97506109538a60208b01610859565b96506109628a60808b01610859565b95506109718a60e08b01610859565b94506109818a6101408b01610859565b979a96995094979396956101a085013595506101c0850135946101e001359350915050565b600080604083850312156109b8578182fd5b6109c28484610833565b946020939093013593505050565b6000602082840312156109e1578081fd5b815161088b81610c9e565b6000602082840312156109fd578081fd5b61088b838361084a565b60008060408385031215610a19578182fd5b505080516020909101519092909150565b600080600060608486031215610a3e578283fd5b83519250602084015191506040840151610a5781610c9e565b809150509250925092565b80358252604081016001600160a01b03610a7f8260208501610833565b166020840152610a92606083018261084a565b60048110610a9c57fe5b80604085015250505050565b901515815260200190565b6020808252602c908201527f4465666942726964676550726f78793a204153594e435f4e4f4e5a45524f5f4f60408201526b55545055545f56414c55455360a01b606082015260800190565b6020808252601a908201527f4465666942726964676550726f78793a204e4f545f5245414459000000000000604082015260600190565b6020808252601e908201527f536166654d6174683a207375627472616374696f6e206f766572666c6f770000604082015260600190565b60208082526026908201527f4465666942726964676550726f78793a20494e434f52524543545f41535345546040820152655f56414c554560d01b606082015260800190565b6101e08101610bc2828a610a62565b610bcf6060830189610a62565b610bdc60c0830188610a62565b610bea610120830187610a62565b84610180830152836101a083015267ffffffffffffffff83166101c083015298975050505050505050565b6101c08101610c248289610a62565b610c316060830188610a62565b610c3e60c0830187610a62565b610c4c610120830186610a62565b8361018083015267ffffffffffffffff83166101a0830152979650505050505050565b90815260200190565b918252602082015260400190565b92835260208301919091521515604082015260600190565b8015158114610cac57600080fd5b5056fea2646970667358221220e246cc64b5b389b9b022d48638472deec7b935c9db472c4c011b60c3b126eb9264736f6c634300060a0033",
          "opcodes": "PUSH1 0x80 PUSH1 0x40 MSTORE CALLVALUE DUP1 ISZERO PUSH2 0x10 JUMPI PUSH1 0x0 DUP1 REVERT JUMPDEST POP PUSH2 0xCE5 DUP1 PUSH2 0x20 PUSH1 0x0 CODECOPY PUSH1 0x0 RETURN INVALID PUSH1 0x80 PUSH1 0x40 MSTORE PUSH1 0x4 CALLDATASIZE LT PUSH2 0x38 JUMPI PUSH1 0x0 CALLDATALOAD PUSH1 0xE0 SHR DUP1 PUSH4 0x79B5080F EQ PUSH2 0x44 JUMPI DUP1 PUSH4 0xCC073557 EQ PUSH2 0x7A JUMPI DUP1 PUSH4 0xD9B5FB79 EQ PUSH2 0xA8 JUMPI PUSH2 0x3F JUMP JUMPDEST CALLDATASIZE PUSH2 0x3F JUMPI STOP JUMPDEST PUSH1 0x0 DUP1 REVERT JUMPDEST CALLVALUE DUP1 ISZERO PUSH2 0x50 JUMPI PUSH1 0x0 DUP1 REVERT JUMPDEST POP PUSH2 0x64 PUSH2 0x5F CALLDATASIZE PUSH1 0x4 PUSH2 0x9A6 JUMP JUMPDEST PUSH2 0xD7 JUMP JUMPDEST PUSH1 0x40 MLOAD PUSH2 0x71 SWAP2 SWAP1 PUSH2 0xAA8 JUMP JUMPDEST PUSH1 0x40 MLOAD DUP1 SWAP2 SUB SWAP1 RETURN JUMPDEST CALLVALUE DUP1 ISZERO PUSH2 0x86 JUMPI PUSH1 0x0 DUP1 REVERT JUMPDEST POP PUSH2 0x9A PUSH2 0x95 CALLDATASIZE PUSH1 0x4 PUSH2 0x892 JUMP JUMPDEST PUSH2 0x160 JUMP JUMPDEST PUSH1 0x40 MLOAD PUSH2 0x71 SWAP3 SWAP2 SWAP1 PUSH2 0xC78 JUMP JUMPDEST CALLVALUE DUP1 ISZERO PUSH2 0xB4 JUMPI PUSH1 0x0 DUP1 REVERT JUMPDEST POP PUSH2 0xC8 PUSH2 0xC3 CALLDATASIZE PUSH1 0x4 PUSH2 0x912 JUMP JUMPDEST PUSH2 0x468 JUMP JUMPDEST PUSH1 0x40 MLOAD PUSH2 0x71 SWAP4 SWAP3 SWAP2 SWAP1 PUSH2 0xC86 JUMP JUMPDEST PUSH1 0x40 MLOAD PUSH4 0x7224F4EB PUSH1 0xE0 SHL DUP2 MSTORE PUSH1 0x0 SWAP1 DUP4 SWAP1 PUSH1 0x1 PUSH1 0x1 PUSH1 0xA0 SHL SUB DUP3 AND SWAP1 PUSH4 0x7224F4EB SWAP1 PUSH2 0x108 SWAP1 DUP7 SWAP1 PUSH1 0x4 ADD PUSH2 0xC6F JUMP JUMPDEST PUSH1 0x20 PUSH1 0x40 MLOAD DUP1 DUP4 SUB DUP2 DUP7 DUP1 EXTCODESIZE ISZERO DUP1 ISZERO PUSH2 0x120 JUMPI PUSH1 0x0 DUP1 REVERT JUMPDEST POP GAS STATICCALL ISZERO DUP1 ISZERO PUSH2 0x134 JUMPI RETURNDATASIZE PUSH1 0x0 DUP1 RETURNDATACOPY RETURNDATASIZE PUSH1 0x0 REVERT JUMPDEST POP POP POP POP PUSH1 0x40 MLOAD RETURNDATASIZE PUSH1 0x1F NOT PUSH1 0x1F DUP3 ADD AND DUP3 ADD DUP1 PUSH1 0x40 MSTORE POP DUP2 ADD SWAP1 PUSH2 0x158 SWAP2 SWAP1 PUSH2 0x9D0 JUMP JUMPDEST SWAP5 SWAP4 POP POP POP POP JUMP JUMPDEST PUSH1 0x0 DUP1 DUP1 DUP1 PUSH1 0x3 PUSH2 0x177 PUSH1 0x60 DUP11 ADD PUSH1 0x40 DUP12 ADD PUSH2 0x9EC JUMP JUMPDEST PUSH1 0x3 DUP2 GT ISZERO PUSH2 0x182 JUMPI INVALID JUMPDEST EQ PUSH2 0x1A2 JUMPI PUSH2 0x19F PUSH2 0x19A PUSH1 0x40 DUP11 ADD PUSH1 0x20 DUP12 ADD PUSH2 0x870 JUMP JUMPDEST PUSH2 0x794 JUMP JUMPDEST SWAP2 POP JUMPDEST PUSH1 0x3 PUSH2 0x1B4 PUSH1 0x60 DUP10 ADD PUSH1 0x40 DUP11 ADD PUSH2 0x9EC JUMP JUMPDEST PUSH1 0x3 DUP2 GT ISZERO PUSH2 0x1BF JUMPI INVALID JUMPDEST EQ PUSH2 0x1DA JUMPI PUSH2 0x1D7 PUSH2 0x19A PUSH1 0x40 DUP10 ADD PUSH1 0x20 DUP11 ADD PUSH2 0x870 JUMP JUMPDEST SWAP1 POP JUMPDEST PUSH1 0x40 MLOAD PUSH4 0x7224F4EB PUSH1 0xE0 SHL DUP2 MSTORE DUP12 SWAP1 PUSH1 0x1 PUSH1 0x1 PUSH1 0xA0 SHL SUB DUP3 AND SWAP1 PUSH4 0x7224F4EB SWAP1 PUSH2 0x208 SWAP1 DUP11 SWAP1 PUSH1 0x4 ADD PUSH2 0xC6F JUMP JUMPDEST PUSH1 0x20 PUSH1 0x40 MLOAD DUP1 DUP4 SUB DUP2 DUP7 DUP1 EXTCODESIZE ISZERO DUP1 ISZERO PUSH2 0x220 JUMPI PUSH1 0x0 DUP1 REVERT JUMPDEST POP GAS STATICCALL ISZERO DUP1 ISZERO PUSH2 0x234 JUMPI RETURNDATASIZE PUSH1 0x0 DUP1 RETURNDATACOPY RETURNDATASIZE PUSH1 0x0 REVERT JUMPDEST POP POP POP POP PUSH1 0x40 MLOAD RETURNDATASIZE PUSH1 0x1F NOT PUSH1 0x1F DUP3 ADD AND DUP3 ADD DUP1 PUSH1 0x40 MSTORE POP DUP2 ADD SWAP1 PUSH2 0x258 SWAP2 SWAP1 PUSH2 0x9D0 JUMP JUMPDEST PUSH2 0x27D JUMPI PUSH1 0x40 MLOAD PUSH3 0x461BCD PUSH1 0xE5 SHL DUP2 MSTORE PUSH1 0x4 ADD PUSH2 0x274 SWAP1 PUSH2 0xAFF JUMP JUMPDEST PUSH1 0x40 MLOAD DUP1 SWAP2 SUB SWAP1 REVERT JUMPDEST PUSH1 0x40 MLOAD PUSH4 0x4D83E9A1 PUSH1 0xE1 SHL DUP2 MSTORE PUSH1 0x1 PUSH1 0x1 PUSH1 0xA0 SHL SUB DUP3 AND SWAP1 PUSH4 0x9B07D342 SWAP1 PUSH2 0x2B3 SWAP1 DUP15 SWAP1 DUP15 SWAP1 DUP15 SWAP1 DUP15 SWAP1 DUP15 SWAP1 DUP15 SWAP1 PUSH1 0x4 ADD PUSH2 0xC15 JUMP JUMPDEST PUSH1 0x40 DUP1 MLOAD DUP1 DUP4 SUB DUP2 PUSH1 0x0 DUP8 DUP1 EXTCODESIZE ISZERO DUP1 ISZERO PUSH2 0x2CC JUMPI PUSH1 0x0 DUP1 REVERT JUMPDEST POP GAS CALL ISZERO DUP1 ISZERO PUSH2 0x2E0 JUMPI RETURNDATASIZE PUSH1 0x0 DUP1 RETURNDATACOPY RETURNDATASIZE PUSH1 0x0 REVERT JUMPDEST POP POP POP POP PUSH1 0x40 MLOAD RETURNDATASIZE PUSH1 0x1F NOT PUSH1 0x1F DUP3 ADD AND DUP3 ADD DUP1 PUSH1 0x40 MSTORE POP DUP2 ADD SWAP1 PUSH2 0x304 SWAP2 SWAP1 PUSH2 0xA07 JUMP JUMPDEST SWAP1 SWAP6 POP SWAP4 POP PUSH1 0x3 PUSH2 0x31B PUSH1 0x60 DUP12 ADD PUSH1 0x40 DUP13 ADD PUSH2 0x9EC JUMP JUMPDEST PUSH1 0x3 DUP2 GT ISZERO PUSH2 0x326 JUMPI INVALID JUMPDEST EQ ISZERO DUP1 ISZERO PUSH2 0x34F JUMPI POP PUSH1 0x0 PUSH2 0x341 PUSH1 0x60 DUP12 ADD PUSH1 0x40 DUP13 ADD PUSH2 0x9EC JUMP JUMPDEST PUSH1 0x3 DUP2 GT ISZERO PUSH2 0x34C JUMPI INVALID JUMPDEST EQ ISZERO JUMPDEST ISZERO PUSH2 0x38E JUMPI PUSH2 0x370 PUSH2 0x36A PUSH2 0x19A PUSH1 0x40 DUP13 ADD PUSH1 0x20 DUP14 ADD PUSH2 0x870 JUMP JUMPDEST DUP5 PUSH2 0x7D3 JUMP JUMPDEST DUP6 EQ PUSH2 0x38E JUMPI PUSH1 0x40 MLOAD PUSH3 0x461BCD PUSH1 0xE5 SHL DUP2 MSTORE PUSH1 0x4 ADD PUSH2 0x274 SWAP1 PUSH2 0xB6D JUMP JUMPDEST PUSH1 0x3 PUSH2 0x3A0 PUSH1 0x60 DUP11 ADD PUSH1 0x40 DUP12 ADD PUSH2 0x9EC JUMP JUMPDEST PUSH1 0x3 DUP2 GT ISZERO PUSH2 0x3AB JUMPI INVALID JUMPDEST EQ ISZERO DUP1 ISZERO PUSH2 0x3D4 JUMPI POP PUSH1 0x0 PUSH2 0x3C6 PUSH1 0x60 DUP11 ADD PUSH1 0x40 DUP12 ADD PUSH2 0x9EC JUMP JUMPDEST PUSH1 0x3 DUP2 GT ISZERO PUSH2 0x3D1 JUMPI INVALID JUMPDEST EQ ISZERO JUMPDEST ISZERO PUSH2 0x413 JUMPI PUSH2 0x3F5 PUSH2 0x3EF PUSH2 0x19A PUSH1 0x40 DUP12 ADD PUSH1 0x20 DUP13 ADD PUSH2 0x870 JUMP JUMPDEST DUP4 PUSH2 0x7D3 JUMP JUMPDEST DUP5 EQ PUSH2 0x413 JUMPI PUSH1 0x40 MLOAD PUSH3 0x461BCD PUSH1 0xE5 SHL DUP2 MSTORE PUSH1 0x4 ADD PUSH2 0x274 SWAP1 PUSH2 0xB6D JUMP JUMPDEST DUP12 PUSH1 0x1 PUSH1 0x1 PUSH1 0xA0 SHL SUB AND PUSH32 0x1F69DD4D25D71E16962EBBDC1534BE51B469874CA1BC8CF79AB171635FDDAD48 DUP7 DUP7 PUSH1 0x0 PUSH1 0x40 MLOAD PUSH2 0x451 SWAP4 SWAP3 SWAP2 SWAP1 PUSH2 0xC86 JUMP JUMPDEST PUSH1 0x40 MLOAD DUP1 SWAP2 SUB SWAP1 LOG2 POP POP POP SWAP8 POP SWAP8 SWAP6 POP POP POP POP POP POP JUMP JUMPDEST PUSH1 0x0 DUP1 DUP1 PUSH1 0x2 PUSH2 0x47E PUSH1 0x60 DUP13 ADD PUSH1 0x40 DUP14 ADD PUSH2 0x9EC JUMP JUMPDEST PUSH1 0x3 DUP2 GT ISZERO PUSH2 0x489 JUMPI INVALID JUMPDEST EQ ISZERO PUSH2 0x4A9 JUMPI PUSH2 0x4A9 PUSH2 0x4A2 PUSH1 0x40 DUP13 ADD PUSH1 0x20 DUP14 ADD PUSH2 0x870 JUMP JUMPDEST DUP13 DUP9 PUSH2 0x800 JUMP JUMPDEST PUSH1 0x2 PUSH2 0x4BB PUSH1 0x60 DUP12 ADD PUSH1 0x40 DUP13 ADD PUSH2 0x9EC JUMP JUMPDEST PUSH1 0x3 DUP2 GT ISZERO PUSH2 0x4C6 JUMPI INVALID JUMPDEST EQ ISZERO PUSH2 0x4DF JUMPI PUSH2 0x4DF PUSH2 0x4A2 PUSH1 0x40 DUP12 ADD PUSH1 0x20 DUP13 ADD PUSH2 0x870 JUMP JUMPDEST PUSH1 0x0 DUP1 PUSH1 0x3 PUSH2 0x4F4 PUSH1 0x60 DUP13 ADD PUSH1 0x40 DUP14 ADD PUSH2 0x9EC JUMP JUMPDEST PUSH1 0x3 DUP2 GT ISZERO PUSH2 0x4FF JUMPI INVALID JUMPDEST EQ PUSH2 0x51A JUMPI PUSH2 0x517 PUSH2 0x19A PUSH1 0x40 DUP13 ADD PUSH1 0x20 DUP14 ADD PUSH2 0x870 JUMP JUMPDEST SWAP2 POP JUMPDEST PUSH1 0x3 PUSH2 0x52C PUSH1 0x60 DUP12 ADD PUSH1 0x40 DUP13 ADD PUSH2 0x9EC JUMP JUMPDEST PUSH1 0x3 DUP2 GT ISZERO PUSH2 0x537 JUMPI INVALID JUMPDEST EQ PUSH2 0x552 JUMPI PUSH2 0x54F PUSH2 0x19A PUSH1 0x40 DUP12 ADD PUSH1 0x20 DUP13 ADD PUSH2 0x870 JUMP JUMPDEST SWAP1 POP JUMPDEST DUP13 PUSH1 0x1 PUSH1 0x1 PUSH1 0xA0 SHL SUB DUP2 AND PUSH4 0x5254162B PUSH1 0x1 DUP16 PUSH1 0x40 ADD PUSH1 0x20 DUP2 ADD SWAP1 PUSH2 0x577 SWAP2 SWAP1 PUSH2 0x9EC JUMP JUMPDEST PUSH1 0x3 DUP2 GT ISZERO PUSH2 0x582 JUMPI INVALID JUMPDEST EQ PUSH2 0x58E JUMPI PUSH1 0x0 PUSH2 0x590 JUMP JUMPDEST DUP11 JUMPDEST DUP16 DUP16 DUP16 DUP16 DUP16 DUP16 DUP16 PUSH1 0x40 MLOAD DUP10 PUSH4 0xFFFFFFFF AND PUSH1 0xE0 SHL DUP2 MSTORE PUSH1 0x4 ADD PUSH2 0x5B9 SWAP8 SWAP7 SWAP6 SWAP5 SWAP4 SWAP3 SWAP2 SWAP1 PUSH2 0xBB3 JUMP JUMPDEST PUSH1 0x60 PUSH1 0x40 MLOAD DUP1 DUP4 SUB DUP2 DUP6 DUP9 DUP1 EXTCODESIZE ISZERO DUP1 ISZERO PUSH2 0x5D2 JUMPI PUSH1 0x0 DUP1 REVERT JUMPDEST POP GAS CALL ISZERO DUP1 ISZERO PUSH2 0x5E6 JUMPI RETURNDATASIZE PUSH1 0x0 DUP1 RETURNDATACOPY RETURNDATASIZE PUSH1 0x0 REVERT JUMPDEST POP POP POP POP POP PUSH1 0x40 MLOAD RETURNDATASIZE PUSH1 0x1F NOT PUSH1 0x1F DUP3 ADD AND DUP3 ADD DUP1 PUSH1 0x40 MSTORE POP DUP2 ADD SWAP1 PUSH2 0x60B SWAP2 SWAP1 PUSH2 0xA2A JUMP JUMPDEST SWAP2 SWAP8 POP SWAP6 POP SWAP4 POP PUSH1 0x3 PUSH2 0x624 PUSH1 0x60 DUP14 ADD PUSH1 0x40 DUP15 ADD PUSH2 0x9EC JUMP JUMPDEST PUSH1 0x3 DUP2 GT ISZERO PUSH2 0x62F JUMPI INVALID JUMPDEST EQ ISZERO DUP1 ISZERO PUSH2 0x658 JUMPI POP PUSH1 0x0 PUSH2 0x64A PUSH1 0x60 DUP14 ADD PUSH1 0x40 DUP15 ADD PUSH2 0x9EC JUMP JUMPDEST PUSH1 0x3 DUP2 GT ISZERO PUSH2 0x655 JUMPI INVALID JUMPDEST EQ ISZERO JUMPDEST ISZERO PUSH2 0x691 JUMPI PUSH2 0x673 PUSH2 0x36A PUSH2 0x19A PUSH1 0x40 DUP15 ADD PUSH1 0x20 DUP16 ADD PUSH2 0x870 JUMP JUMPDEST DUP7 EQ PUSH2 0x691 JUMPI PUSH1 0x40 MLOAD PUSH3 0x461BCD PUSH1 0xE5 SHL DUP2 MSTORE PUSH1 0x4 ADD PUSH2 0x274 SWAP1 PUSH2 0xB6D JUMP JUMPDEST PUSH1 0x3 PUSH2 0x6A3 PUSH1 0x60 DUP13 ADD PUSH1 0x40 DUP14 ADD PUSH2 0x9EC JUMP JUMPDEST PUSH1 0x3 DUP2 GT ISZERO PUSH2 0x6AE JUMPI INVALID JUMPDEST EQ ISZERO DUP1 ISZERO PUSH2 0x6D7 JUMPI POP PUSH1 0x0 PUSH2 0x6C9 PUSH1 0x60 DUP13 ADD PUSH1 0x40 DUP14 ADD PUSH2 0x9EC JUMP JUMPDEST PUSH1 0x3 DUP2 GT ISZERO PUSH2 0x6D4 JUMPI INVALID JUMPDEST EQ ISZERO JUMPDEST ISZERO PUSH2 0x710 JUMPI PUSH2 0x6F2 PUSH2 0x3EF PUSH2 0x19A PUSH1 0x40 DUP14 ADD PUSH1 0x20 DUP15 ADD PUSH2 0x870 JUMP JUMPDEST DUP6 EQ PUSH2 0x710 JUMPI PUSH1 0x40 MLOAD PUSH3 0x461BCD PUSH1 0xE5 SHL DUP2 MSTORE PUSH1 0x4 ADD PUSH2 0x274 SWAP1 PUSH2 0xB6D JUMP JUMPDEST DUP4 ISZERO PUSH2 0x73E JUMPI DUP6 ISZERO DUP1 ISZERO PUSH2 0x722 JUMPI POP DUP5 ISZERO JUMPDEST PUSH2 0x73E JUMPI PUSH1 0x40 MLOAD PUSH3 0x461BCD PUSH1 0xE5 SHL DUP2 MSTORE PUSH1 0x4 ADD PUSH2 0x274 SWAP1 PUSH2 0xAB3 JUMP JUMPDEST DUP14 PUSH1 0x1 PUSH1 0x1 PUSH1 0xA0 SHL SUB AND PUSH32 0x1F69DD4D25D71E16962EBBDC1534BE51B469874CA1BC8CF79AB171635FDDAD48 DUP8 DUP8 DUP8 PUSH1 0x40 MLOAD PUSH2 0x77B SWAP4 SWAP3 SWAP2 SWAP1 PUSH2 0xC86 JUMP JUMPDEST PUSH1 0x40 MLOAD DUP1 SWAP2 SUB SWAP1 LOG2 POP POP POP SWAP9 POP SWAP9 POP SWAP9 SWAP6 POP POP POP POP POP POP JUMP JUMPDEST PUSH1 0x0 DUP2 PUSH2 0x79F JUMPI POP ADDRESS BALANCE JUMPDEST DUP2 ISZERO PUSH2 0x7CE JUMPI PUSH1 0x40 MLOAD PUSH4 0x70A08231 PUSH1 0xE0 SHL DUP2 MSTORE ADDRESS PUSH1 0x4 DUP3 ADD MSTORE PUSH1 0x20 DUP2 PUSH1 0x24 DUP4 DUP7 GAS STATICCALL PUSH2 0x7CA JUMPI PUSH1 0x0 DUP1 REVERT JUMPDEST MLOAD SWAP1 POP JUMPDEST SWAP2 SWAP1 POP JUMP JUMPDEST PUSH1 0x0 DUP3 DUP3 GT ISZERO PUSH2 0x7F5 JUMPI PUSH1 0x40 MLOAD PUSH3 0x461BCD PUSH1 0xE5 SHL DUP2 MSTORE PUSH1 0x4 ADD PUSH2 0x274 SWAP1 PUSH2 0xB36 JUMP JUMPDEST POP DUP1 DUP3 SUB JUMPDEST SWAP3 SWAP2 POP POP JUMP JUMPDEST PUSH1 0x40 MLOAD PUSH4 0xA9059CBB PUSH1 0xE0 SHL DUP2 MSTORE DUP3 PUSH1 0x4 DUP3 ADD MSTORE DUP2 PUSH1 0x24 DUP3 ADD MSTORE PUSH1 0x0 DUP2 PUSH1 0x44 DUP4 PUSH1 0x0 DUP9 GAS CALL PUSH2 0x82D JUMPI PUSH1 0x0 DUP1 REVERT JUMPDEST POP POP POP POP JUMP JUMPDEST DUP1 CALLDATALOAD PUSH1 0x1 PUSH1 0x1 PUSH1 0xA0 SHL SUB DUP2 AND DUP2 EQ PUSH2 0x7FA JUMPI PUSH1 0x0 DUP1 REVERT JUMPDEST DUP1 CALLDATALOAD PUSH1 0x4 DUP2 LT PUSH2 0x7FA JUMPI PUSH1 0x0 DUP1 REVERT JUMPDEST PUSH1 0x0 PUSH1 0x60 DUP3 DUP5 SUB SLT ISZERO PUSH2 0x86A JUMPI DUP1 DUP2 REVERT JUMPDEST POP SWAP2 SWAP1 POP JUMP JUMPDEST PUSH1 0x0 PUSH1 0x20 DUP3 DUP5 SUB SLT ISZERO PUSH2 0x881 JUMPI DUP1 DUP2 REVERT JUMPDEST PUSH2 0x88B DUP4 DUP4 PUSH2 0x833 JUMP JUMPDEST SWAP4 SWAP3 POP POP POP JUMP JUMPDEST PUSH1 0x0 DUP1 PUSH1 0x0 DUP1 PUSH1 0x0 DUP1 PUSH1 0x0 PUSH2 0x1E0 DUP9 DUP11 SUB SLT ISZERO PUSH2 0x8AD JUMPI DUP3 DUP4 REVERT JUMPDEST PUSH2 0x8B7 DUP10 DUP10 PUSH2 0x833 JUMP JUMPDEST SWAP7 POP PUSH2 0x8C6 DUP10 PUSH1 0x20 DUP11 ADD PUSH2 0x859 JUMP JUMPDEST SWAP6 POP PUSH2 0x8D5 DUP10 PUSH1 0x80 DUP11 ADD PUSH2 0x859 JUMP JUMPDEST SWAP5 POP PUSH2 0x8E4 DUP10 PUSH1 0xE0 DUP11 ADD PUSH2 0x859 JUMP JUMPDEST SWAP4 POP PUSH2 0x8F4 DUP10 PUSH2 0x140 DUP11 ADD PUSH2 0x859 JUMP JUMPDEST SWAP3 POP PUSH2 0x1A0 DUP9 ADD CALLDATALOAD SWAP2 POP PUSH2 0x1C0 DUP9 ADD CALLDATALOAD SWAP1 POP SWAP3 SWAP6 SWAP9 SWAP2 SWAP5 SWAP8 POP SWAP3 SWAP6 POP JUMP JUMPDEST PUSH1 0x0 DUP1 PUSH1 0x0 DUP1 PUSH1 0x0 DUP1 PUSH1 0x0 DUP1 PUSH2 0x200 DUP10 DUP12 SUB SLT ISZERO PUSH2 0x92E JUMPI DUP1 DUP2 REVERT JUMPDEST DUP9 CALLDATALOAD PUSH1 0x1 PUSH1 0x1 PUSH1 0xA0 SHL SUB DUP2 AND DUP2 EQ PUSH2 0x944 JUMPI DUP2 DUP3 REVERT JUMPDEST SWAP8 POP PUSH2 0x953 DUP11 PUSH1 0x20 DUP12 ADD PUSH2 0x859 JUMP JUMPDEST SWAP7 POP PUSH2 0x962 DUP11 PUSH1 0x80 DUP12 ADD PUSH2 0x859 JUMP JUMPDEST SWAP6 POP PUSH2 0x971 DUP11 PUSH1 0xE0 DUP12 ADD PUSH2 0x859 JUMP JUMPDEST SWAP5 POP PUSH2 0x981 DUP11 PUSH2 0x140 DUP12 ADD PUSH2 0x859 JUMP JUMPDEST SWAP8 SWAP11 SWAP7 SWAP10 POP SWAP5 SWAP8 SWAP4 SWAP7 SWAP6 PUSH2 0x1A0 DUP6 ADD CALLDATALOAD SWAP6 POP PUSH2 0x1C0 DUP6 ADD CALLDATALOAD SWAP5 PUSH2 0x1E0 ADD CALLDATALOAD SWAP4 POP SWAP2 POP POP JUMP JUMPDEST PUSH1 0x0 DUP1 PUSH1 0x40 DUP4 DUP6 SUB SLT ISZERO PUSH2 0x9B8 JUMPI DUP2 DUP3 REVERT JUMPDEST PUSH2 0x9C2 DUP5 DUP5 PUSH2 0x833 JUMP JUMPDEST SWAP5 PUSH1 0x20 SWAP4 SWAP1 SWAP4 ADD CALLDATALOAD SWAP4 POP POP POP JUMP JUMPDEST PUSH1 0x0 PUSH1 0x20 DUP3 DUP5 SUB SLT ISZERO PUSH2 0x9E1 JUMPI DUP1 DUP2 REVERT JUMPDEST DUP2 MLOAD PUSH2 0x88B DUP2 PUSH2 0xC9E JUMP JUMPDEST PUSH1 0x0 PUSH1 0x20 DUP3 DUP5 SUB SLT ISZERO PUSH2 0x9FD JUMPI DUP1 DUP2 REVERT JUMPDEST PUSH2 0x88B DUP4 DUP4 PUSH2 0x84A JUMP JUMPDEST PUSH1 0x0 DUP1 PUSH1 0x40 DUP4 DUP6 SUB SLT ISZERO PUSH2 0xA19 JUMPI DUP2 DUP3 REVERT JUMPDEST POP POP DUP1 MLOAD PUSH1 0x20 SWAP1 SWAP2 ADD MLOAD SWAP1 SWAP3 SWAP1 SWAP2 POP JUMP JUMPDEST PUSH1 0x0 DUP1 PUSH1 0x0 PUSH1 0x60 DUP5 DUP7 SUB SLT ISZERO PUSH2 0xA3E JUMPI DUP3 DUP4 REVERT JUMPDEST DUP4 MLOAD SWAP3 POP PUSH1 0x20 DUP5 ADD MLOAD SWAP2 POP PUSH1 0x40 DUP5 ADD MLOAD PUSH2 0xA57 DUP2 PUSH2 0xC9E JUMP JUMPDEST DUP1 SWAP2 POP POP SWAP3 POP SWAP3 POP SWAP3 JUMP JUMPDEST DUP1 CALLDATALOAD DUP3 MSTORE PUSH1 0x40 DUP2 ADD PUSH1 0x1 PUSH1 0x1 PUSH1 0xA0 SHL SUB PUSH2 0xA7F DUP3 PUSH1 0x20 DUP6 ADD PUSH2 0x833 JUMP JUMPDEST AND PUSH1 0x20 DUP5 ADD MSTORE PUSH2 0xA92 PUSH1 0x60 DUP4 ADD DUP3 PUSH2 0x84A JUMP JUMPDEST PUSH1 0x4 DUP2 LT PUSH2 0xA9C JUMPI INVALID JUMPDEST DUP1 PUSH1 0x40 DUP6 ADD MSTORE POP POP POP POP JUMP JUMPDEST SWAP1 ISZERO ISZERO DUP2 MSTORE PUSH1 0x20 ADD SWAP1 JUMP JUMPDEST PUSH1 0x20 DUP1 DUP3 MSTORE PUSH1 0x2C SWAP1 DUP3 ADD MSTORE PUSH32 0x4465666942726964676550726F78793A204153594E435F4E4F4E5A45524F5F4F PUSH1 0x40 DUP3 ADD MSTORE PUSH12 0x55545055545F56414C554553 PUSH1 0xA0 SHL PUSH1 0x60 DUP3 ADD MSTORE PUSH1 0x80 ADD SWAP1 JUMP JUMPDEST PUSH1 0x20 DUP1 DUP3 MSTORE PUSH1 0x1A SWAP1 DUP3 ADD MSTORE PUSH32 0x4465666942726964676550726F78793A204E4F545F5245414459000000000000 PUSH1 0x40 DUP3 ADD MSTORE PUSH1 0x60 ADD SWAP1 JUMP JUMPDEST PUSH1 0x20 DUP1 DUP3 MSTORE PUSH1 0x1E SWAP1 DUP3 ADD MSTORE PUSH32 0x536166654D6174683A207375627472616374696F6E206F766572666C6F770000 PUSH1 0x40 DUP3 ADD MSTORE PUSH1 0x60 ADD SWAP1 JUMP JUMPDEST PUSH1 0x20 DUP1 DUP3 MSTORE PUSH1 0x26 SWAP1 DUP3 ADD MSTORE PUSH32 0x4465666942726964676550726F78793A20494E434F52524543545F4153534554 PUSH1 0x40 DUP3 ADD MSTORE PUSH6 0x5F56414C5545 PUSH1 0xD0 SHL PUSH1 0x60 DUP3 ADD MSTORE PUSH1 0x80 ADD SWAP1 JUMP JUMPDEST PUSH2 0x1E0 DUP2 ADD PUSH2 0xBC2 DUP3 DUP11 PUSH2 0xA62 JUMP JUMPDEST PUSH2 0xBCF PUSH1 0x60 DUP4 ADD DUP10 PUSH2 0xA62 JUMP JUMPDEST PUSH2 0xBDC PUSH1 0xC0 DUP4 ADD DUP9 PUSH2 0xA62 JUMP JUMPDEST PUSH2 0xBEA PUSH2 0x120 DUP4 ADD DUP8 PUSH2 0xA62 JUMP JUMPDEST DUP5 PUSH2 0x180 DUP4 ADD MSTORE DUP4 PUSH2 0x1A0 DUP4 ADD MSTORE PUSH8 0xFFFFFFFFFFFFFFFF DUP4 AND PUSH2 0x1C0 DUP4 ADD MSTORE SWAP9 SWAP8 POP POP POP POP POP POP POP POP JUMP JUMPDEST PUSH2 0x1C0 DUP2 ADD PUSH2 0xC24 DUP3 DUP10 PUSH2 0xA62 JUMP JUMPDEST PUSH2 0xC31 PUSH1 0x60 DUP4 ADD DUP9 PUSH2 0xA62 JUMP JUMPDEST PUSH2 0xC3E PUSH1 0xC0 DUP4 ADD DUP8 PUSH2 0xA62 JUMP JUMPDEST PUSH2 0xC4C PUSH2 0x120 DUP4 ADD DUP7 PUSH2 0xA62 JUMP JUMPDEST DUP4 PUSH2 0x180 DUP4 ADD MSTORE PUSH8 0xFFFFFFFFFFFFFFFF DUP4 AND PUSH2 0x1A0 DUP4 ADD MSTORE SWAP8 SWAP7 POP POP POP POP POP POP POP JUMP JUMPDEST SWAP1 DUP2 MSTORE PUSH1 0x20 ADD SWAP1 JUMP JUMPDEST SWAP2 DUP3 MSTORE PUSH1 0x20 DUP3 ADD MSTORE PUSH1 0x40 ADD SWAP1 JUMP JUMPDEST SWAP3 DUP4 MSTORE PUSH1 0x20 DUP4 ADD SWAP2 SWAP1 SWAP2 MSTORE ISZERO ISZERO PUSH1 0x40 DUP3 ADD MSTORE PUSH1 0x60 ADD SWAP1 JUMP JUMPDEST DUP1 ISZERO ISZERO DUP2 EQ PUSH2 0xCAC JUMPI PUSH1 0x0 DUP1 REVERT JUMPDEST POP JUMP INVALID LOG2 PUSH5 0x6970667358 0x22 SLT KECCAK256 0xE2 CHAINID 0xCC PUSH5 0xB5B389B9B0 0x22 0xD4 DUP7 CODESIZE SELFBALANCE 0x2D 0xEE 0xC7 0xB9 CALLDATALOAD 0xC9 0xDB SELFBALANCE 0x2C 0x4C ADD SHL PUSH1 0xC3 0xB1 0x26 0xEB SWAP3 PUSH5 0x736F6C6343 STOP MOD EXP STOP CALLER "
        },
        "methodIdentifiers": {
          "canFinalise(address,uint256)": "79b5080f",
          "convert(address,(uint256,address,uint8),(uint256,address,uint8),(uint256,address,uint8),(uint256,address,uint8),uint256,uint256,uint256)": "d9b5fb79",
          "finalise(address,(uint256,address,uint8),(uint256,address,uint8),(uint256,address,uint8),(uint256,address,uint8),uint256,uint256)": "cc073557"
        }
      }
    }
  }
}