{
  "contracts/YearnBridge.sol": {
    "YearnBridge": {
      "abi": [
        {
          "inputs": [
            {
              "internalType": "address",
              "name": "_rollupProcessor",
              "type": "address"
            },
            {
              "internalType": "address",
              "name": "_yearnVault",
              "type": "address"
            }
          ],
          "stateMutability": "nonpayable",
          "type": "constructor"
        },
        {
          "inputs": [
            {
              "internalType": "uint256",
              "name": "",
              "type": "uint256"
            }
          ],
          "name": "canFinalise",
          "outputs": [
            {
              "internalType": "bool",
              "name": "",
              "type": "bool"
            }
          ],
          "stateMutability": "view",
          "type": "function"
        },
        {
          "inputs": [
            {
              "components": [
                {
                  "internalType": "uint256",
                  "name": "id",
                  "type": "uint256"
                },
                {
                  "internalType": "address",
                  "name": "erc20Address",
                  "type": "address"
                },
                {
                  "internalType": "enum Types.AztecAssetType",
                  "name": "assetType",
                  "type": "uint8"
                }
              ],
              "internalType": "struct Types.AztecAsset",
              "name": "inputAssetA",
              "type": "tuple"
            },
            {
              "components": [
                {
                  "internalType": "uint256",
                  "name": "id",
                  "type": "uint256"
                },
                {
                  "internalType": "address",
                  "name": "erc20Address",
                  "type": "address"
                },
                {
                  "internalType": "enum Types.AztecAssetType",
                  "name": "assetType",
                  "type": "uint8"
                }
              ],
              "internalType": "struct Types.AztecAsset",
              "name": "",
              "type": "tuple"
            },
            {
              "components": [
                {
                  "internalType": "uint256",
                  "name": "id",
                  "type": "uint256"
                },
                {
                  "internalType": "address",
                  "name": "erc20Address",
                  "type": "address"
                },
                {
                  "internalType": "enum Types.AztecAssetType",
                  "name": "assetType",
                  "type": "uint8"
                }
              ],
              "internalType": "struct Types.AztecAsset",
              "name": "outputAssetA",
              "type": "tuple"
            },
            {
              "components": [
                {
                  "internalType": "uint256",
                  "name": "id",
                  "type": "uint256"
                },
                {
                  "internalType": "address",
                  "name": "erc20Address",
                  "type": "address"
                },
                {
                  "internalType": "enum Types.AztecAssetType",
                  "name": "assetType",
                  "type": "uint8"
                }
              ],
              "internalType": "struct Types.AztecAsset",
              "name": "",
              "type": "tuple"
            },
            {
              "internalType": "uint256",
              "name": "inputValue",
              "type": "uint256"
            },
            {
              "internalType": "uint256",
              "name": "",
              "type": "uint256"
            },
            {
              "internalType": "uint64",
              "name": "",
              "type": "uint64"
            }
          ],
          "name": "convert",
          "outputs": [
            {
              "internalType": "uint256",
              "name": "",
              "type": "uint256"
            },
            {
              "internalType": "uint256",
              "name": "",
              "type": "uint256"
            },
            {
              "internalType": "bool",
              "name": "",
              "type": "bool"
            }
          ],
          "stateMutability": "payable",
          "type": "function"
        },
        {
          "inputs": [
            {
              "components": [
                {
                  "internalType": "uint256",
                  "name": "id",
                  "type": "uint256"
                },
                {
                  "internalType": "address",
                  "name": "erc20Address",
                  "type": "address"
                },
                {
                  "internalType": "enum Types.AztecAssetType",
                  "name": "assetType",
                  "type": "uint8"
                }
              ],
              "internalType": "struct Types.AztecAsset",
              "name": "",
              "type": "tuple"
            },
            {
              "components": [
                {
                  "internalType": "uint256",
                  "name": "id",
                  "type": "uint256"
                },
                {
                  "internalType": "address",
                  "name": "erc20Address",
                  "type": "address"
                },
                {
                  "internalType": "enum Types.AztecAssetType",
                  "name": "assetType",
                  "type": "uint8"
                }
              ],
              "internalType": "struct Types.AztecAsset",
              "name": "",
              "type": "tuple"
            },
            {
              "components": [
                {
                  "internalType": "uint256",
                  "name": "id",
                  "type": "uint256"
                },
                {
                  "internalType": "address",
                  "name": "erc20Address",
                  "type": "address"
                },
                {
                  "internalType": "enum Types.AztecAssetType",
                  "name": "assetType",
                  "type": "uint8"
                }
              ],
              "internalType": "struct Types.AztecAsset",
              "name": "",
              "type": "tuple"
            },
            {
              "components": [
                {
                  "internalType": "uint256",
                  "name": "id",
                  "type": "uint256"
                },
                {
                  "internalType": "address",
                  "name": "erc20Address",
                  "type": "address"
                },
                {
                  "internalType": "enum Types.AztecAssetType",
                  "name": "assetType",
                  "type": "uint8"
                }
              ],
              "internalType": "struct Types.AztecAsset",
              "name": "",
              "type": "tuple"
            },
            {
              "internalType": "uint256",
              "name": "",
              "type": "uint256"
            },
            {
              "internalType": "uint64",
              "name": "",
              "type": "uint64"
            }
          ],
          "name": "finalise",
          "outputs": [
            {
              "internalType": "uint256",
              "name": "",
              "type": "uint256"
            },
            {
              "internalType": "uint256",
              "name": "",
              "type": "uint256"
            }
          ],
          "stateMutability": "payable",
          "type": "function"
        },
        {
          "inputs": [],
          "name": "rollupProcessor",
          "outputs": [
            {
              "internalType": "address",
              "name": "",
              "type": "address"
            }
          ],
          "stateMutability": "view",
          "type": "function"
        },
        {
          "inputs": [],
          "name": "yearnVault",
          "outputs": [
            {
              "internalType": "contract IYVault",
              "name": "",
              "type": "address"
            }
          ],
          "stateMutability": "view",
          "type": "function"
        },
        {
          "stateMutability": "payable",
          "type": "receive"
        }
      ],
      "evm": {
        "bytecode": {
          "linkReferences": {},
          "object": "60c060405234801561001057600080fd5b506040516110cd3803806110cd83398101604081905261002f9161004d565b6001600160601b0319606092831b8116608052911b1660a05261009e565b6000806040838503121561005f578182fd5b825161006a81610086565b602084015190925061007b81610086565b809150509250929050565b6001600160a01b038116811461009b57600080fd5b50565b60805160601c60a05160601c610fc5610108600039806101e552806102a7528061032552806103e2528061040652806104c5528061055b52806105e5528061063f52806106ef52806107c952508061010c528061013d528061057d52806106cd5250610fc56000f3fe60806040526004361061004e5760003560e01c80632a113d6e1461005a5780635254162b146100855780637224f4eb146100a75780639b07d342146100d45780639db5df46146100f557610055565b3661005557005b600080fd5b34801561006657600080fd5b5061006f61010a565b60405161007c9190610cbd565b60405180910390f35b610098610093366004610b5d565b61012e565b60405161007c93929190610f33565b3480156100b357600080fd5b506100c76100c2366004610c71565b6107b9565b60405161007c9190610d04565b6100e76100e2366004610bed565b6107bf565b60405161007c929190610f25565b34801561010157600080fd5b5061006f6107c7565b7f000000000000000000000000000000000000000000000000000000000000000081565b60008080336001600160a01b037f000000000000000000000000000000000000000000000000000000000000000016146101835760405162461bcd60e51b815260040161017a90610e2d565b60405180910390fd5b600261019560608c0160408d01610b3e565b60038111156101a057fe5b1480156101c7575060026101ba60608a0160408b01610b3e565b60038111156101c557fe5b145b6101e35760405162461bcd60e51b815260040161017a90610e9b565b7f00000000000000000000000000000000000000000000000000000000000000006001600160a01b031663fc0c546a6040518163ffffffff1660e01b815260040160206040518083038186803b15801561023c57600080fd5b505afa158015610250573d6000803e3d6000fd5b505050506040513d601f19601f820116820180604052508101906102749190610b02565b6001600160a01b031661028d60408a0160208b01610ae6565b6001600160a01b031614806102e257506001600160a01b037f0000000000000000000000000000000000000000000000000000000000000000166102d760408a0160208b01610ae6565b6001600160a01b0316145b6102fe5760405162461bcd60e51b815260040161017a90610df6565b600261031060608c0160408d01610b3e565b600381111561031b57fe5b1480156103d857507f00000000000000000000000000000000000000000000000000000000000000006001600160a01b031663fc0c546a6040518163ffffffff1660e01b815260040160206040518083038186803b15801561037c57600080fd5b505afa158015610390573d6000803e3d6000fd5b505050506040513d601f19601f820116820180604052508101906103b49190610b02565b6001600160a01b03166103cd60408c0160208d01610ae6565b6001600160a01b0316145b156105b6576104ab7f00000000000000000000000000000000000000000000000000000000000000006000197f00000000000000000000000000000000000000000000000000000000000000006001600160a01b031663fc0c546a6040518163ffffffff1660e01b815260040160206040518083038186803b15801561045d57600080fd5b505afa158015610471573d6000803e3d6000fd5b505050506040513d601f19601f820116820180604052508101906104959190610b02565b6001600160a01b0316919063ffffffff6107eb16565b60405163b6b55f2560e01b81526000906001600160a01b037f0000000000000000000000000000000000000000000000000000000000000000169063b6b55f25906104fa908a90600401610f1c565b602060405180830381600087803b15801561051457600080fd5b505af1158015610528573d6000803e3d6000fd5b505050506040513d601f19601f8201168201806040525081019061054c9190610c89565b90506105a86001600160a01b037f0000000000000000000000000000000000000000000000000000000000000000167f00000000000000000000000000000000000000000000000000000000000000008363ffffffff6108d916565b9250600091508190506107ac565b60026105c860608c0160408d01610b3e565b60038111156105d357fe5b14801561062057506001600160a01b037f00000000000000000000000000000000000000000000000000000000000000001661061560408c0160208d01610ae6565b6001600160a01b0316145b1561079457604051632e1a7d4d60e01b81526000906001600160a01b037f00000000000000000000000000000000000000000000000000000000000000001690632e1a7d4d90610674908a90600401610f1c565b602060405180830381600087803b15801561068e57600080fd5b505af11580156106a2573d6000803e3d6000fd5b505050506040513d601f19601f820116820180604052508101906106c69190610c89565b90506105a87f0000000000000000000000000000000000000000000000000000000000000000827f00000000000000000000000000000000000000000000000000000000000000006001600160a01b031663fc0c546a6040518163ffffffff1660e01b815260040160206040518083038186803b15801561074657600080fd5b505afa15801561075a573d6000803e3d6000fd5b505050506040513d601f19601f8201168201806040525081019061077e9190610b02565b6001600160a01b0316919063ffffffff6108d916565b60405162461bcd60e51b815260040161017a90610d79565b9750975097945050505050565b50600090565b600080600080fd5b7f000000000000000000000000000000000000000000000000000000000000000081565b600061087b82856001600160a01b031663dd62ed3e30876040518363ffffffff1660e01b815260040161081f929190610cd1565b60206040518083038186803b15801561083757600080fd5b505afa15801561084b573d6000803e3d6000fd5b505050506040513d601f19601f8201168201806040525081019061086f9190610c89565b9063ffffffff6108fd16565b90506108d38463095ea7b360e01b858460405160240161089c929190610ceb565b60408051601f198184030181529190526020810180516001600160e01b03166001600160e01b031990931692909217909152610929565b50505050565b6108f88363a9059cbb60e01b848460405160240161089c929190610ceb565b505050565b6000828201838110156109225760405162461bcd60e51b815260040161017a90610d42565b9392505050565b606061097e826040518060400160405280602081526020017f5361666545524332303a206c6f772d6c6576656c2063616c6c206661696c6564815250856001600160a01b03166109b89092919063ffffffff16565b8051909150156108f8578080602001905181019061099c9190610b1e565b6108f85760405162461bcd60e51b815260040161017a90610ed2565b60606109c784846000856109cf565b949350505050565b6060824710156109f15760405162461bcd60e51b815260040161017a90610db0565b6109fa85610a90565b610a165760405162461bcd60e51b815260040161017a90610e64565b60006060866001600160a01b03168587604051610a339190610ca1565b60006040518083038185875af1925050503d8060008114610a70576040519150601f19603f3d011682016040523d82523d6000602084013e610a75565b606091505b5091509150610a85828286610a96565b979650505050505050565b3b151590565b60608315610aa5575081610922565b825115610ab55782518084602001fd5b8160405162461bcd60e51b815260040161017a9190610d0f565b600060608284031215610ae0578081fd5b50919050565b600060208284031215610af7578081fd5b813561092281610f77565b600060208284031215610b13578081fd5b815161092281610f77565b600060208284031215610b2f578081fd5b81518015158114610922578182fd5b600060208284031215610b4f578081fd5b813560048110610922578182fd5b60008060008060008060006101e0888a031215610b78578283fd5b610b828989610acf565b9650610b918960608a01610acf565b9550610ba08960c08a01610acf565b9450610bb0896101208a01610acf565b935061018088013592506101a088013591506101c088013567ffffffffffffffff81168114610bdd578182fd5b8091505092959891949750929550565b6000806000806000806101c08789031215610c06578182fd5b610c108888610acf565b9550610c1f8860608901610acf565b9450610c2e8860c08901610acf565b9350610c3e886101208901610acf565b925061018087013591506101a087013567ffffffffffffffff81168114610c63578182fd5b809150509295509295509295565b600060208284031215610c82578081fd5b5035919050565b600060208284031215610c9a578081fd5b5051919050565b60008251610cb3818460208701610f4b565b9190910192915050565b6001600160a01b0391909116815260200190565b6001600160a01b0392831681529116602082015260400190565b6001600160a01b03929092168252602082015260400190565b901515815260200190565b6000602082528251806020840152610d2e816040850160208701610f4b565b601f01601f19169190910160400192915050565b6020808252601b908201527f536166654d6174683a206164646974696f6e206f766572666c6f770000000000604082015260600190565b60208082526018908201527f596561726e4272696467653a20554e535550504f525445440000000000000000604082015260600190565b60208082526026908201527f416464726573733a20696e73756666696369656e742062616c616e636520666f6040820152651c8818d85b1b60d21b606082015260800190565b6020808252601b908201527f596561726e4272696467653a20494e56414c49445f4f55545055540000000000604082015260600190565b6020808252601b908201527f596561726e4272696467653a20494e56414c49445f43414c4c45520000000000604082015260600190565b6020808252601d908201527f416464726573733a2063616c6c20746f206e6f6e2d636f6e7472616374000000604082015260600190565b60208082526019908201527f596561726e4272696467653a20494e56414c49445f43414c4c00000000000000604082015260600190565b6020808252602a908201527f5361666545524332303a204552433230206f7065726174696f6e20646964206e6040820152691bdd081cdd58d8d9595960b21b606082015260800190565b90815260200190565b918252602082015260400190565b92835260208301919091521515604082015260600190565b60005b83811015610f66578181015183820152602001610f4e565b838111156108d35750506000910152565b6001600160a01b0381168114610f8c57600080fd5b5056fea264697066735822122054bda0f111e3d90088f605ef28221ce05bc2dc9b2e66d37cdde7c77cf9e1aa3264736f6c634300060a0033",
          "opcodes": "PUSH1 0xC0 PUSH1 0x40 MSTORE CALLVALUE DUP1 ISZERO PUSH2 0x10 JUMPI PUSH1 0x0 DUP1 REVERT JUMPDEST POP PUSH1 0x40 MLOAD PUSH2 0x10CD CODESIZE SUB DUP1 PUSH2 0x10CD DUP4 CODECOPY DUP2 ADD PUSH1 0x40 DUP2 SWAP1 MSTORE PUSH2 0x2F SWAP2 PUSH2 0x4D JUMP JUMPDEST PUSH1 0x1 PUSH1 0x1 PUSH1 0x60 SHL SUB NOT PUSH1 0x60 SWAP3 DUP4 SHL DUP2 AND PUSH1 0x80 MSTORE SWAP2 SHL AND PUSH1 0xA0 MSTORE PUSH2 0x9E JUMP JUMPDEST PUSH1 0x0 DUP1 PUSH1 0x40 DUP4 DUP6 SUB SLT ISZERO PUSH2 0x5F JUMPI DUP2 DUP3 REVERT JUMPDEST DUP3 MLOAD PUSH2 0x6A DUP2 PUSH2 0x86 JUMP JUMPDEST PUSH1 0x20 DUP5 ADD MLOAD SWAP1 SWAP3 POP PUSH2 0x7B DUP2 PUSH2 0x86 JUMP JUMPDEST DUP1 SWAP2 POP POP SWAP3 POP SWAP3 SWAP1 POP JUMP JUMPDEST PUSH1 0x1 PUSH1 0x1 PUSH1 0xA0 SHL SUB DUP2 AND DUP2 EQ PUSH2 0x9B JUMPI PUSH1 0x0 DUP1 REVERT JUMPDEST POP JUMP JUMPDEST PUSH1 0x80 MLOAD PUSH1 0x60 SHR PUSH1 0xA0 MLOAD PUSH1 0x60 SHR PUSH2 0xFC5 PUSH2 0x108 PUSH1 0x0 CODECOPY DUP1 PUSH2 0x1E5 MSTORE DUP1 PUSH2 0x2A7 MSTORE DUP1 PUSH2 0x325 MSTORE DUP1 PUSH2 0x3E2 MSTORE DUP1 PUSH2 0x406 MSTORE DUP1 PUSH2 0x4C5 MSTORE DUP1 PUSH2 0x55B MSTORE DUP1 PUSH2 0x5E5 MSTORE DUP1 PUSH2 0x63F MSTORE DUP1 PUSH2 0x6EF MSTORE DUP1 PUSH2 0x7C9 MSTORE POP DUP1 PUSH2 0x10C MSTORE DUP1 PUSH2 0x13D MSTORE DUP1 PUSH2 0x57D MSTORE DUP1 PUSH2 0x6CD MSTORE POP PUSH2 0xFC5 PUSH1 0x0 RETURN INVALID PUSH1 0x80 PUSH1 0x40 MSTORE PUSH1 0x4 CALLDATASIZE LT PUSH2 0x4E JUMPI PUSH1 0x0 CALLDATALOAD PUSH1 0xE0 SHR DUP1 PUSH4 0x2A113D6E EQ PUSH2 0x5A JUMPI DUP1 PUSH4 0x5254162B EQ PUSH2 0x85 JUMPI DUP1 PUSH4 0x7224F4EB EQ PUSH2 0xA7 JUMPI DUP1 PUSH4 0x9B07D342 EQ PUSH2 0xD4 JUMPI DUP1 PUSH4 0x9DB5DF46 EQ PUSH2 0xF5 JUMPI PUSH2 0x55 JUMP JUMPDEST CALLDATASIZE PUSH2 0x55 JUMPI STOP JUMPDEST PUSH1 0x0 DUP1 REVERT JUMPDEST CALLVALUE DUP1 ISZERO PUSH2 0x66 JUMPI PUSH1 0x0 DUP1 REVERT JUMPDEST POP PUSH2 0x6F PUSH2 0x10A JUMP JUMPDEST PUSH1 0x40 MLOAD PUSH2 0x7C SWAP2 SWAP1 PUSH2 0xCBD JUMP JUMPDEST PUSH1 0x40 MLOAD DUP1 SWAP2 SUB SWAP1 RETURN JUMPDEST PUSH2 0x98 PUSH2 0x93 CALLDATASIZE PUSH1 0x4 PUSH2 0xB5D JUMP JUMPDEST PUSH2 0x12E JUMP JUMPDEST PUSH1 0x40 MLOAD PUSH2 0x7C SWAP4 SWAP3 SWAP2 SWAP1 PUSH2 0xF33 JUMP JUMPDEST CALLVALUE DUP1 ISZERO PUSH2 0xB3 JUMPI PUSH1 0x0 DUP1 REVERT JUMPDEST POP PUSH2 0xC7 PUSH2 0xC2 CALLDATASIZE PUSH1 0x4 PUSH2 0xC71 JUMP JUMPDEST PUSH2 0x7B9 JUMP JUMPDEST PUSH1 0x40 MLOAD PUSH2 0x7C SWAP2 SWAP1 PUSH2 0xD04 JUMP JUMPDEST PUSH2 0xE7 PUSH2 0xE2 CALLDATASIZE PUSH1 0x4 PUSH2 0xBED JUMP JUMPDEST PUSH2 0x7BF JUMP JUMPDEST PUSH1 0x40 MLOAD PUSH2 0x7C SWAP3 SWAP2 SWAP1 PUSH2 0xF25 JUMP JUMPDEST CALLVALUE DUP1 ISZERO PUSH2 0x101 JUMPI PUSH1 0x0 DUP1 REVERT JUMPDEST POP PUSH2 0x6F PUSH2 0x7C7 JUMP JUMPDEST PUSH32 0x0 DUP2 JUMP JUMPDEST PUSH1 0x0 DUP1 DUP1 CALLER PUSH1 0x1 PUSH1 0x1 PUSH1 0xA0 SHL SUB PUSH32 0x0 AND EQ PUSH2 0x183 JUMPI PUSH1 0x40 MLOAD PUSH3 0x461BCD PUSH1 0xE5 SHL DUP2 MSTORE PUSH1 0x4 ADD PUSH2 0x17A SWAP1 PUSH2 0xE2D JUMP JUMPDEST PUSH1 0x40 MLOAD DUP1 SWAP2 SUB SWAP1 REVERT JUMPDEST PUSH1 0x2 PUSH2 0x195 PUSH1 0x60 DUP13 ADD PUSH1 0x40 DUP14 ADD PUSH2 0xB3E JUMP JUMPDEST PUSH1 0x3 DUP2 GT ISZERO PUSH2 0x1A0 JUMPI INVALID JUMPDEST EQ DUP1 ISZERO PUSH2 0x1C7 JUMPI POP PUSH1 0x2 PUSH2 0x1BA PUSH1 0x60 DUP11 ADD PUSH1 0x40 DUP12 ADD PUSH2 0xB3E JUMP JUMPDEST PUSH1 0x3 DUP2 GT ISZERO PUSH2 0x1C5 JUMPI INVALID JUMPDEST EQ JUMPDEST PUSH2 0x1E3 JUMPI PUSH1 0x40 MLOAD PUSH3 0x461BCD PUSH1 0xE5 SHL DUP2 MSTORE PUSH1 0x4 ADD PUSH2 0x17A SWAP1 PUSH2 0xE9B JUMP JUMPDEST PUSH32 0x0 PUSH1 0x1 PUSH1 0x1 PUSH1 0xA0 SHL SUB AND PUSH4 0xFC0C546A PUSH1 0x40 MLOAD DUP2 PUSH4 0xFFFFFFFF AND PUSH1 0xE0 SHL DUP2 MSTORE PUSH1 0x4 ADD PUSH1 0x20 PUSH1 0x40 MLOAD DUP1 DUP4 SUB DUP2 DUP7 DUP1 EXTCODESIZE ISZERO DUP1 ISZERO PUSH2 0x23C JUMPI PUSH1 0x0 DUP1 REVERT JUMPDEST POP GAS STATICCALL ISZERO DUP1 ISZERO PUSH2 0x250 JUMPI RETURNDATASIZE PUSH1 0x0 DUP1 RETURNDATACOPY RETURNDATASIZE PUSH1 0x0 REVERT JUMPDEST POP POP POP POP PUSH1 0x40 MLOAD RETURNDATASIZE PUSH1 0x1F NOT PUSH1 0x1F DUP3 ADD AND DUP3 ADD DUP1 PUSH1 0x40 MSTORE POP DUP2 ADD SWAP1 PUSH2 0x274 SWAP2 SWAP1 PUSH2 0xB02 JUMP JUMPDEST PUSH1 0x1 PUSH1 0x1 PUSH1 0xA0 SHL SUB AND PUSH2 0x28D PUSH1 0x40 DUP11 ADD PUSH1 0x20 DUP12 ADD PUSH2 0xAE6 JUMP JUMPDEST PUSH1 0x1 PUSH1 0x1 PUSH1 0xA0 SHL SUB AND EQ DUP1 PUSH2 0x2E2 JUMPI POP PUSH1 0x1 PUSH1 0x1 PUSH1 0xA0 SHL SUB PUSH32 0x0 AND PUSH2 0x2D7 PUSH1 0x40 DUP11 ADD PUSH1 0x20 DUP12 ADD PUSH2 0xAE6 JUMP JUMPDEST PUSH1 0x1 PUSH1 0x1 PUSH1 0xA0 SHL SUB AND EQ JUMPDEST PUSH2 0x2FE JUMPI PUSH1 0x40 MLOAD PUSH3 0x461BCD PUSH1 0xE5 SHL DUP2 MSTORE PUSH1 0x4 ADD PUSH2 0x17A SWAP1 PUSH2 0xDF6 JUMP JUMPDEST PUSH1 0x2 PUSH2 0x310 PUSH1 0x60 DUP13 ADD PUSH1 0x40 DUP14 ADD PUSH2 0xB3E JUMP JUMPDEST PUSH1 0x3 DUP2 GT ISZERO PUSH2 0x31B JUMPI INVALID JUMPDEST EQ DUP1 ISZERO PUSH2 0x3D8 JUMPI POP PUSH32 0x0 PUSH1 0x1 PUSH1 0x1 PUSH1 0xA0 SHL SUB AND PUSH4 0xFC0C546A PUSH1 0x40 MLOAD DUP2 PUSH4 0xFFFFFFFF AND PUSH1 0xE0 SHL DUP2 MSTORE PUSH1 0x4 ADD PUSH1 0x20 PUSH1 0x40 MLOAD DUP1 DUP4 SUB DUP2 DUP7 DUP1 EXTCODESIZE ISZERO DUP1 ISZERO PUSH2 0x37C JUMPI PUSH1 0x0 DUP1 REVERT JUMPDEST POP GAS STATICCALL ISZERO DUP1 ISZERO PUSH2 0x390 JUMPI RETURNDATASIZE PUSH1 0x0 DUP1 RETURNDATACOPY RETURNDATASIZE PUSH1 0x0 REVERT JUMPDEST POP POP POP POP PUSH1 0x40 MLOAD RETURNDATASIZE PUSH1 0x1F NOT PUSH1 0x1F DUP3 ADD AND DUP3 ADD DUP1 PUSH1 0x40 MSTORE POP DUP2 ADD SWAP1 PUSH2 0x3B4 SWAP2 SWAP1 PUSH2 0xB02 JUMP JUMPDEST PUSH1 0x1 PUSH1 0x1 PUSH1 0xA0 SHL SUB AND PUSH2 0x3CD PUSH1 0x40 DUP13 ADD PUSH1 0x20 DUP14 ADD PUSH2 0xAE6 JUMP JUMPDEST PUSH1 0x1 PUSH1 0x1 PUSH1 0xA0 SHL SUB AND EQ JUMPDEST ISZERO PUSH2 0x5B6 JUMPI PUSH2 0x4AB PUSH32 0x0 PUSH1 0x0 NOT PUSH32 0x0 PUSH1 0x1 PUSH1 0x1 PUSH1 0xA0 SHL SUB AND PUSH4 0xFC0C546A PUSH1 0x40 MLOAD DUP2 PUSH4 0xFFFFFFFF AND PUSH1 0xE0 SHL DUP2 MSTORE PUSH1 0x4 ADD PUSH1 0x20 PUSH1 0x40 MLOAD DUP1 DUP4 SUB DUP2 DUP7 DUP1 EXTCODESIZE ISZERO DUP1 ISZERO PUSH2 0x45D JUMPI PUSH1 0x0 DUP1 REVERT JUMPDEST POP GAS STATICCALL ISZERO DUP1 ISZERO PUSH2 0x471 JUMPI RETURNDATASIZE PUSH1 0x0 DUP1 RETURNDATACOPY RETURNDATASIZE PUSH1 0x0 REVERT JUMPDEST POP POP POP POP PUSH1 0x40 MLOAD RETURNDATASIZE PUSH1 0x1F NOT PUSH1 0x1F DUP3 ADD AND DUP3 ADD DUP1 PUSH1 0x40 MSTORE POP DUP2 ADD SWAP1 PUSH2 0x495 SWAP2 SWAP1 PUSH2 0xB02 JUMP JUMPDEST PUSH1 0x1 PUSH1 0x1 PUSH1 0xA0 SHL SUB AND SWAP2 SWAP1 PUSH4 0xFFFFFFFF PUSH2 0x7EB AND JUMP JUMPDEST PUSH1 0x40 MLOAD PUSH4 0xB6B55F25 PUSH1 0xE0 SHL DUP2 MSTORE PUSH1 0x0 SWAP1 PUSH1 0x1 PUSH1 0x1 PUSH1 0xA0 SHL SUB PUSH32 0x0 AND SWAP1 PUSH4 0xB6B55F25 SWAP1 PUSH2 0x4FA SWAP1 DUP11 SWAP1 PUSH1 0x4 ADD PUSH2 0xF1C JUMP JUMPDEST PUSH1 0x20 PUSH1 0x40 MLOAD DUP1 DUP4 SUB DUP2 PUSH1 0x0 DUP8 DUP1 EXTCODESIZE ISZERO DUP1 ISZERO PUSH2 0x514 JUMPI PUSH1 0x0 DUP1 REVERT JUMPDEST POP GAS CALL ISZERO DUP1 ISZERO PUSH2 0x528 JUMPI RETURNDATASIZE PUSH1 0x0 DUP1 RETURNDATACOPY RETURNDATASIZE PUSH1 0x0 REVERT JUMPDEST POP POP POP POP PUSH1 0x40 MLOAD RETURNDATASIZE PUSH1 0x1F NOT PUSH1 0x1F DUP3 ADD AND DUP3 ADD DUP1 PUSH1 0x40 MSTORE POP DUP2 ADD SWAP1 PUSH2 0x54C SWAP2 SWAP1 PUSH2 0xC89 JUMP JUMPDEST SWAP1 POP PUSH2 0x5A8 PUSH1 0x1 PUSH1 0x1 PUSH1 0xA0 SHL SUB PUSH32 0x0 AND PUSH32 0x0 DUP4 PUSH4 0xFFFFFFFF PUSH2 0x8D9 AND JUMP JUMPDEST SWAP3 POP PUSH1 0x0 SWAP2 POP DUP2 SWAP1 POP PUSH2 0x7AC JUMP JUMPDEST PUSH1 0x2 PUSH2 0x5C8 PUSH1 0x60 DUP13 ADD PUSH1 0x40 DUP14 ADD PUSH2 0xB3E JUMP JUMPDEST PUSH1 0x3 DUP2 GT ISZERO PUSH2 0x5D3 JUMPI INVALID JUMPDEST EQ DUP1 ISZERO PUSH2 0x620 JUMPI POP PUSH1 0x1 PUSH1 0x1 PUSH1 0xA0 SHL SUB PUSH32 0x0 AND PUSH2 0x615 PUSH1 0x40 DUP13 ADD PUSH1 0x20 DUP14 ADD PUSH2 0xAE6 JUMP JUMPDEST PUSH1 0x1 PUSH1 0x1 PUSH1 0xA0 SHL SUB AND EQ JUMPDEST ISZERO PUSH2 0x794 JUMPI PUSH1 0x40 MLOAD PUSH4 0x2E1A7D4D PUSH1 0xE0 SHL DUP2 MSTORE PUSH1 0x0 SWAP1 PUSH1 0x1 PUSH1 0x1 PUSH1 0xA0 SHL SUB PUSH32 0x0 AND SWAP1 PUSH4 0x2E1A7D4D SWAP1 PUSH2 0x674 SWAP1 DUP11 SWAP1 PUSH1 0x4 ADD PUSH2 0xF1C JUMP JUMPDEST PUSH1 0x20 PUSH1 0x40 MLOAD DUP1 DUP4 SUB DUP2 PUSH1 0x0 DUP8 DUP1 EXTCODESIZE ISZERO DUP1 ISZERO PUSH2 0x68E JUMPI PUSH1 0x0 DUP1 REVERT JUMPDEST POP GAS CALL ISZERO DUP1 ISZERO PUSH2 0x6A2 JUMPI RETURNDATASIZE PUSH1 0x0 DUP1 RETURNDATACOPY RETURNDATASIZE PUSH1 0x0 REVERT JUMPDEST POP POP POP POP PUSH1 0x40 MLOAD RETURNDATASIZE PUSH1 0x1F NOT PUSH1 0x1F DUP3 ADD AND DUP3 ADD DUP1 PUSH1 0x40 MSTORE POP DUP2 ADD SWAP1 PUSH2 0x6C6 SWAP2 SWAP1 PUSH2 0xC89 JUMP JUMPDEST SWAP1 POP PUSH2 0x5A8 PUSH32 0x0 DUP3 PUSH32 0x0 PUSH1 0x1 PUSH1 0x1 PUSH1 0xA0 SHL SUB AND PUSH4 0xFC0C546A PUSH1 0x40 MLOAD DUP2 PUSH4 0xFFFFFFFF AND PUSH1 0xE0 SHL DUP2 MSTORE PUSH1 0x4 ADD PUSH1 0x20 PUSH1 0x40 MLOAD DUP1 DUP4 SUB DUP2 DUP7 DUP1 EXTCODESIZE ISZERO DUP1 ISZERO PUSH2 0x746 JUMPI PUSH1 0x0 DUP1 REVERT JUMPDEST POP GAS STATICCALL ISZERO DUP1 ISZERO PUSH2 0x75A JUMPI RETURNDATASIZE PUSH1 0x0 DUP1 RETURNDATACOPY RETURNDATASIZE PUSH1 0x0 REVERT JUMPDEST POP POP POP POP PUSH1 0x40 MLOAD RETURNDATASIZE PUSH1 0x1F NOT PUSH1 0x1F DUP3 ADD AND DUP3 ADD DUP1 PUSH1 0x40 MSTORE POP DUP2 ADD SWAP1 PUSH2 0x77E SWAP2 SWAP1 PUSH2 0xB02 JUMP JUMPDEST PUSH1 0x1 PUSH1 0x1 PUSH1 0xA0 SHL SUB AND SWAP2 SWAP1 PUSH4 0xFFFFFFFF PUSH2 0x8D9 AND JUMP JUMPDEST PUSH1 0x40 MLOAD PUSH3 0x461BCD PUSH1 0xE5 SHL DUP2 MSTORE PUSH1 0x4 ADD PUSH2 0x17A SWAP1 PUSH2 0xD79 JUMP JUMPDEST SWAP8 POP SWAP8 POP SWAP8 SWAP5 POP POP POP POP POP JUMP JUMPDEST POP PUSH1 0x0 SWAP1 JUMP JUMPDEST PUSH1 0x0 DUP1 PUSH1 0x0 DUP1 REVERT JUMPDEST PUSH32 0x0 DUP2 JUMP JUMPDEST PUSH1 0x0 PUSH2 0x87B DUP3 DUP6 PUSH1 0x1 PUSH1 0x1 PUSH1 0xA0 SHL SUB AND PUSH4 0xDD62ED3E ADDRESS DUP8 PUSH1 0x40 MLOAD DUP4 PUSH4 0xFFFFFFFF AND PUSH1 0xE0 SHL DUP2 MSTORE PUSH1 0x4 ADD PUSH2 0x81F SWAP3 SWAP2 SWAP1 PUSH2 0xCD1 JUMP JUMPDEST PUSH1 0x20 PUSH1 0x40 MLOAD DUP1 DUP4 SUB DUP2 DUP7 DUP1 EXTCODESIZE ISZERO DUP1 ISZERO PUSH2 0x837 JUMPI PUSH1 0x0 DUP1 REVERT JUMPDEST POP GAS STATICCALL ISZERO DUP1 ISZERO PUSH2 0x84B JUMPI RETURNDATASIZE PUSH1 0x0 DUP1 RETURNDATACOPY RETURNDATASIZE PUSH1 0x0 REVERT JUMPDEST POP POP POP POP PUSH1 0x40 MLOAD RETURNDATASIZE PUSH1 0x1F NOT PUSH1 0x1F DUP3 ADD AND DUP3 ADD DUP1 PUSH1 0x40 MSTORE POP DUP2 ADD SWAP1 PUSH2 0x86F SWAP2 SWAP1 PUSH2 0xC89 JUMP JUMPDEST SWAP1 PUSH4 0xFFFFFFFF PUSH2 0x8FD AND JUMP JUMPDEST SWAP1 POP PUSH2 0x8D3 DUP5 PUSH4 0x95EA7B3 PUSH1 0xE0 SHL DUP6 DUP5 PUSH1 0x40 MLOAD PUSH1 0x24 ADD PUSH2 0x89C SWAP3 SWAP2 SWAP1 PUSH2 0xCEB JUMP JUMPDEST PUSH1 0x40 DUP1 MLOAD PUSH1 0x1F NOT DUP2 DUP5 SUB ADD DUP2 MSTORE SWAP2 SWAP1 MSTORE PUSH1 0x20 DUP2 ADD DUP1 MLOAD PUSH1 0x1 PUSH1 0x1 PUSH1 0xE0 SHL SUB AND PUSH1 0x1 PUSH1 0x1 PUSH1 0xE0 SHL SUB NOT SWAP1 SWAP4 AND SWAP3 SWAP1 SWAP3 OR SWAP1 SWAP2 MSTORE PUSH2 0x929 JUMP JUMPDEST POP POP POP POP JUMP JUMPDEST PUSH2 0x8F8 DUP4 PUSH4 0xA9059CBB PUSH1 0xE0 SHL DUP5 DUP5 PUSH1 0x40 MLOAD PUSH1 0x24 ADD PUSH2 0x89C SWAP3 SWAP2 SWAP1 PUSH2 0xCEB JUMP JUMPDEST POP POP POP JUMP JUMPDEST PUSH1 0x0 DUP3 DUP3 ADD DUP4 DUP2 LT ISZERO PUSH2 0x922 JUMPI PUSH1 0x40 MLOAD PUSH3 0x461BCD PUSH1 0xE5 SHL DUP2 MSTORE PUSH1 0x4 ADD PUSH2 0x17A SWAP1 PUSH2 0xD42 JUMP JUMPDEST SWAP4 SWAP3 POP POP POP JUMP JUMPDEST PUSH1 0x60 PUSH2 0x97E DUP3 PUSH1 0x40 MLOAD DUP1 PUSH1 0x40 ADD PUSH1 0x40 MSTORE DUP1 PUSH1 0x20 DUP2 MSTORE PUSH1 0x20 ADD PUSH32 0x5361666545524332303A206C6F772D6C6576656C2063616C6C206661696C6564 DUP2 MSTORE POP DUP6 PUSH1 0x1 PUSH1 0x1 PUSH1 0xA0 SHL SUB AND PUSH2 0x9B8 SWAP1 SWAP3 SWAP2 SWAP1 PUSH4 0xFFFFFFFF AND JUMP JUMPDEST DUP1 MLOAD SWAP1 SWAP2 POP ISZERO PUSH2 0x8F8 JUMPI DUP1 DUP1 PUSH1 0x20 ADD SWAP1 MLOAD DUP2 ADD SWAP1 PUSH2 0x99C SWAP2 SWAP1 PUSH2 0xB1E JUMP JUMPDEST PUSH2 0x8F8 JUMPI PUSH1 0x40 MLOAD PUSH3 0x461BCD PUSH1 0xE5 SHL DUP2 MSTORE PUSH1 0x4 ADD PUSH2 0x17A SWAP1 PUSH2 0xED2 JUMP JUMPDEST PUSH1 0x60 PUSH2 0x9C7 DUP5 DUP5 PUSH1 0x0 DUP6 PUSH2 0x9CF JUMP JUMPDEST SWAP5 SWAP4 POP POP POP POP JUMP JUMPDEST PUSH1 0x60 DUP3 SELFBALANCE LT ISZERO PUSH2 0x9F1 JUMPI PUSH1 0x40 MLOAD PUSH3 0x461BCD PUSH1 0xE5 SHL DUP2 MSTORE PUSH1 0x4 ADD PUSH2 0x17A SWAP1 PUSH2 0xDB0 JUMP JUMPDEST PUSH2 0x9FA DUP6 PUSH2 0xA90 JUMP JUMPDEST PUSH2 0xA16 JUMPI PUSH1 0x40 MLOAD PUSH3 0x461BCD PUSH1 0xE5 SHL DUP2 MSTORE PUSH1 0x4 ADD PUSH2 0x17A SWAP1 PUSH2 0xE64 JUMP JUMPDEST PUSH1 0x0 PUSH1 0x60 DUP7 PUSH1 0x1 PUSH1 0x1 PUSH1 0xA0 SHL SUB AND DUP6 DUP8 PUSH1 0x40 MLOAD PUSH2 0xA33 SWAP2 SWAP1 PUSH2 0xCA1 JUMP JUMPDEST PUSH1 0x0 PUSH1 0x40 MLOAD DUP1 DUP4 SUB DUP2 DUP6 DUP8 GAS CALL SWAP3 POP POP POP RETURNDATASIZE DUP1 PUSH1 0x0 DUP2 EQ PUSH2 0xA70 JUMPI PUSH1 0x40 MLOAD SWAP2 POP PUSH1 0x1F NOT PUSH1 0x3F RETURNDATASIZE ADD AND DUP3 ADD PUSH1 0x40 MSTORE RETURNDATASIZE DUP3 MSTORE RETURNDATASIZE PUSH1 0x0 PUSH1 0x20 DUP5 ADD RETURNDATACOPY PUSH2 0xA75 JUMP JUMPDEST PUSH1 0x60 SWAP2 POP JUMPDEST POP SWAP2 POP SWAP2 POP PUSH2 0xA85 DUP3 DUP3 DUP7 PUSH2 0xA96 JUMP JUMPDEST SWAP8 SWAP7 POP POP POP POP POP POP POP JUMP JUMPDEST EXTCODESIZE ISZERO ISZERO SWAP1 JUMP JUMPDEST PUSH1 0x60 DUP4 ISZERO PUSH2 0xAA5 JUMPI POP DUP2 PUSH2 0x922 JUMP JUMPDEST DUP3 MLOAD ISZERO PUSH2 0xAB5 JUMPI DUP3 MLOAD DUP1 DUP5 PUSH1 0x20 ADD REVERT JUMPDEST DUP2 PUSH1 0x40 MLOAD PUSH3 0x461BCD PUSH1 0xE5 SHL DUP2 MSTORE PUSH1 0x4 ADD PUSH2 0x17A SWAP2 SWAP1 PUSH2 0xD0F JUMP JUMPDEST PUSH1 0x0 PUSH1 0x60 DUP3 DUP5 SUB SLT ISZERO PUSH2 0xAE0 JUMPI DUP1 DUP2 REVERT JUMPDEST POP SWAP2 SWAP1 POP JUMP JUMPDEST PUSH1 0x0 PUSH1 0x20 DUP3 DUP5 SUB SLT ISZERO PUSH2 0xAF7 JUMPI DUP1 DUP2 REVERT JUMPDEST DUP2 CALLDATALOAD PUSH2 0x922 DUP2 PUSH2 0xF77 JUMP JUMPDEST PUSH1 0x0 PUSH1 0x20 DUP3 DUP5 SUB SLT ISZERO PUSH2 0xB13 JUMPI DUP1 DUP2 REVERT JUMPDEST DUP2 MLOAD PUSH2 0x922 DUP2 PUSH2 0xF77 JUMP JUMPDEST PUSH1 0x0 PUSH1 0x20 DUP3 DUP5 SUB SLT ISZERO PUSH2 0xB2F JUMPI DUP1 DUP2 REVERT JUMPDEST DUP2 MLOAD DUP1 ISZERO ISZERO DUP2 EQ PUSH2 0x922 JUMPI DUP2 DUP3 REVERT JUMPDEST PUSH1 0x0 PUSH1 0x20 DUP3 DUP5 SUB SLT ISZERO PUSH2 0xB4F JUMPI DUP1 DUP2 REVERT JUMPDEST DUP2 CALLDATALOAD PUSH1 0x4 DUP2 LT PUSH2 0x922 JUMPI DUP2 DUP3 REVERT JUMPDEST PUSH1 0x0 DUP1 PUSH1 0x0 DUP1 PUSH1 0x0 DUP1 PUSH1 0x0 PUSH2 0x1E0 DUP9 DUP11 SUB SLT ISZERO PUSH2 0xB78 JUMPI DUP3 DUP4 REVERT JUMPDEST PUSH2 0xB82 DUP10 DUP10 PUSH2 0xACF JUMP JUMPDEST SWAP7 POP PUSH2 0xB91 DUP10 PUSH1 0x60 DUP11 ADD PUSH2 0xACF JUMP JUMPDEST SWAP6 POP PUSH2 0xBA0 DUP10 PUSH1 0xC0 DUP11 ADD PUSH2 0xACF JUMP JUMPDEST SWAP5 POP PUSH2 0xBB0 DUP10 PUSH2 0x120 DUP11 ADD PUSH2 0xACF JUMP JUMPDEST SWAP4 POP PUSH2 0x180 DUP9 ADD CALLDATALOAD SWAP3 POP PUSH2 0x1A0 DUP9 ADD CALLDATALOAD SWAP2 POP PUSH2 0x1C0 DUP9 ADD CALLDATALOAD PUSH8 0xFFFFFFFFFFFFFFFF DUP2 AND DUP2 EQ PUSH2 0xBDD JUMPI DUP2 DUP3 REVERT JUMPDEST DUP1 SWAP2 POP POP SWAP3 SWAP6 SWAP9 SWAP2 SWAP5 SWAP8 POP SWAP3 SWAP6 POP JUMP JUMPDEST PUSH1 0x0 DUP1 PUSH1 0x0 DUP1 PUSH1 0x0 DUP1 PUSH2 0x1C0 DUP8 DUP10 SUB SLT ISZERO PUSH2 0xC06 JUMPI DUP2 DUP3 REVERT JUMPDEST PUSH2 0xC10 DUP9 DUP9 PUSH2 0xACF JUMP JUMPDEST SWAP6 POP PUSH2 0xC1F DUP9 PUSH1 0x60 DUP10 ADD PUSH2 0xACF JUMP JUMPDEST SWAP5 POP PUSH2 0xC2E DUP9 PUSH1 0xC0 DUP10 ADD PUSH2 0xACF JUMP JUMPDEST SWAP4 POP PUSH2 0xC3E DUP9 PUSH2 0x120 DUP10 ADD PUSH2 0xACF JUMP JUMPDEST SWAP3 POP PUSH2 0x180 DUP8 ADD CALLDATALOAD SWAP2 POP PUSH2 0x1A0 DUP8 ADD CALLDATALOAD PUSH8 0xFFFFFFFFFFFFFFFF DUP2 AND DUP2 EQ PUSH2 0xC63 JUMPI DUP2 DUP3 REVERT JUMPDEST DUP1 SWAP2 POP POP SWAP3 SWAP6 POP SWAP3 SWAP6 POP SWAP3 SWAP6 JUMP JUMPDEST PUSH1 0x0 PUSH1 0x20 DUP3 DUP5 SUB SLT ISZERO PUSH2 0xC82 JUMPI DUP1 DUP2 REVERT JUMPDEST POP CALLDATALOAD SWAP2 SWAP1 POP JUMP JUMPDEST PUSH1 0x0 PUSH1 0x20 DUP3 DUP5 SUB SLT ISZERO PUSH2 0xC9A JUMPI DUP1 DUP2 REVERT JUMPDEST POP MLOAD SWAP2 SWAP1 POP JUMP JUMPDEST PUSH1 0x0 DUP3 MLOAD PUSH2 0xCB3 DUP2 DUP5 PUSH1 0x20 DUP8 ADD PUSH2 0xF4B JUMP JUMPDEST SWAP2 SWAP1 SWAP2 ADD SWAP3 SWAP2 POP POP JUMP JUMPDEST PUSH1 0x1 PUSH1 0x1 PUSH1 0xA0 SHL SUB SWAP2 SWAP1 SWAP2 AND DUP2 MSTORE PUSH1 0x20 ADD SWAP1 JUMP JUMPDEST PUSH1 0x1 PUSH1 0x1 PUSH1 0xA0 SHL SUB SWAP3 DUP4 AND DUP2 MSTORE SWAP2 AND PUSH1 0x20 DUP3 ADD MSTORE PUSH1 0x40 ADD SWAP1 JUMP JUMPDEST PUSH1 0x1 PUSH1 0x1 PUSH1 0xA0 SHL SUB SWAP3 SWAP1 SWAP3 AND DUP3 MSTORE PUSH1 0x20 DUP3 ADD MSTORE PUSH1 0x40 ADD SWAP1 JUMP JUMPDEST SWAP1 ISZERO ISZERO DUP2 MSTORE PUSH1 0x20 ADD SWAP1 JUMP JUMPDEST PUSH1 0x0 PUSH1 0x20 DUP3 MSTORE DUP3 MLOAD DUP1 PUSH1 0x20 DUP5 ADD MSTORE PUSH2 0xD2E DUP2 PUSH1 0x40 DUP6 ADD PUSH1 0x20 DUP8 ADD PUSH2 0xF4B JUMP JUMPDEST PUSH1 0x1F ADD PUSH1 0x1F NOT AND SWAP2 SWAP1 SWAP2 ADD PUSH1 0x40 ADD SWAP3 SWAP2 POP POP JUMP JUMPDEST PUSH1 0x20 DUP1 DUP3 MSTORE PUSH1 0x1B SWAP1 DUP3 ADD MSTORE PUSH32 0x536166654D6174683A206164646974696F6E206F766572666C6F770000000000 PUSH1 0x40 DUP3 ADD MSTORE PUSH1 0x60 ADD SWAP1 JUMP JUMPDEST PUSH1 0x20 DUP1 DUP3 MSTORE PUSH1 0x18 SWAP1 DUP3 ADD MSTORE PUSH32 0x596561726E4272696467653A20554E535550504F525445440000000000000000 PUSH1 0x40 DUP3 ADD MSTORE PUSH1 0x60 ADD SWAP1 JUMP JUMPDEST PUSH1 0x20 DUP1 DUP3 MSTORE PUSH1 0x26 SWAP1 DUP3 ADD MSTORE PUSH32 0x416464726573733A20696E73756666696369656E742062616C616E636520666F PUSH1 0x40 DUP3 ADD MSTORE PUSH6 0x1C8818D85B1B PUSH1 0xD2 SHL PUSH1 0x60 DUP3 ADD MSTORE PUSH1 0x80 ADD SWAP1 JUMP JUMPDEST PUSH1 0x20 DUP1 DUP3 MSTORE PUSH1 0x1B SWAP1 DUP3 ADD MSTORE PUSH32 0x596561726E4272696467653A20494E56414C49445F4F55545055540000000000 PUSH1 0x40 DUP3 ADD MSTORE PUSH1 0x60 ADD SWAP1 JUMP JUMPDEST PUSH1 0x20 DUP1 DUP3 MSTORE PUSH1 0x1B SWAP1 DUP3 ADD MSTORE PUSH32 0x596561726E4272696467653A20494E56414C49445F43414C4C45520000000000 PUSH1 0x40 DUP3 ADD MSTORE PUSH1 0x60 ADD SWAP1 JUMP JUMPDEST PUSH1 0x20 DUP1 DUP3 MSTORE PUSH1 0x1D SWAP1 DUP3 ADD MSTORE PUSH32 0x416464726573733A2063616C6C20746F206E6F6E2D636F6E7472616374000000 PUSH1 0x40 DUP3 ADD MSTORE PUSH1 0x60 ADD SWAP1 JUMP JUMPDEST PUSH1 0x20 DUP1 DUP3 MSTORE PUSH1 0x19 SWAP1 DUP3 ADD MSTORE PUSH32 0x596561726E4272696467653A20494E56414C49445F43414C4C00000000000000 PUSH1 0x40 DUP3 ADD MSTORE PUSH1 0x60 ADD SWAP1 JUMP JUMPDEST PUSH1 0x20 DUP1 DUP3 MSTORE PUSH1 0x2A SWAP1 DUP3 ADD MSTORE PUSH32 0x5361666545524332303A204552433230206F7065726174696F6E20646964206E PUSH1 0x40 DUP3 ADD MSTORE PUSH10 0x1BDD081CDD58D8D95959 PUSH1 0xB2 SHL PUSH1 0x60 DUP3 ADD MSTORE PUSH1 0x80 ADD SWAP1 JUMP JUMPDEST SWAP1 DUP2 MSTORE PUSH1 0x20 ADD SWAP1 JUMP JUMPDEST SWAP2 DUP3 MSTORE PUSH1 0x20 DUP3 ADD MSTORE PUSH1 0x40 ADD SWAP1 JUMP JUMPDEST SWAP3 DUP4 MSTORE PUSH1 0x20 DUP4 ADD SWAP2 SWAP1 SWAP2 MSTORE ISZERO ISZERO PUSH1 0x40 DUP3 ADD MSTORE PUSH1 0x60 ADD SWAP1 JUMP JUMPDEST PUSH1 0x0 JUMPDEST DUP4 DUP2 LT ISZERO PUSH2 0xF66 JUMPI DUP2 DUP2 ADD MLOAD DUP4 DUP3 ADD MSTORE PUSH1 0x20 ADD PUSH2 0xF4E JUMP JUMPDEST DUP4 DUP2 GT ISZERO PUSH2 0x8D3 JUMPI POP POP PUSH1 0x0 SWAP2 ADD MSTORE JUMP JUMPDEST PUSH1 0x1 PUSH1 0x1 PUSH1 0xA0 SHL SUB DUP2 AND DUP2 EQ PUSH2 0xF8C JUMPI PUSH1 0x0 DUP1 REVERT JUMPDEST POP JUMP INVALID LOG2 PUSH5 0x6970667358 0x22 SLT KECCAK256 SLOAD 0xBD LOG0 CALL GT 0xE3 0xD9 STOP DUP9 0xF6 SDIV 0xEF 0x28 0x22 SHR 0xE0 JUMPDEST 0xC2 0xDC SWAP12 0x2E PUSH7 0xD37CDDE7C77CF9 0xE1 0xAA ORIGIN PUSH5 0x736F6C6343 STOP MOD EXP STOP CALLER "
        },
        "methodIdentifiers": {
          "canFinalise(uint256)": "7224f4eb",
          "convert((uint256,address,uint8),(uint256,address,uint8),(uint256,address,uint8),(uint256,address,uint8),uint256,uint256,uint64)": "5254162b",
          "finalise((uint256,address,uint8),(uint256,address,uint8),(uint256,address,uint8),(uint256,address,uint8),uint256,uint64)": "9b07d342",
          "rollupProcessor()": "2a113d6e",
          "yearnVault()": "9db5df46"
        }
      }
    }
  }
}