{
  "_format": "hh-sol-artifact-1",
  "contractName": "YearnBridge",
  "sourceName": "contracts/YearnBridge.sol",
  "abi": [
    {
      "inputs": [
        {
          "internalType": "address",
          "name": "_rollupProcessor",
          "type": "address"
        },
        {
          "internalType": "address",
          "name": "_yearnVault",
          "type": "address"
        }
      ],
      "stateMutability": "nonpayable",
      "type": "constructor"
    },
    {
      "inputs": [
        {
          "internalType": "uint256",
          "name": "",
          "type": "uint256"
        }
      ],
      "name": "canFinalise",
      "outputs": [
        {
          "internalType": "bool",
          "name": "",
          "type": "bool"
        }
      ],
      "stateMutability": "view",
      "type": "function"
    },
    {
      "inputs": [
        {
          "components": [
            {
              "internalType": "uint256",
              "name": "id",
              "type": "uint256"
            },
            {
              "internalType": "address",
              "name": "erc20Address",
              "type": "address"
            },
            {
              "internalType": "enum Types.AztecAssetType",
              "name": "assetType",
              "type": "uint8"
            }
          ],
          "internalType": "struct Types.AztecAsset",
          "name": "inputAssetA",
          "type": "tuple"
        },
        {
          "components": [
            {
              "internalType": "uint256",
              "name": "id",
              "type": "uint256"
            },
            {
              "internalType": "address",
              "name": "erc20Address",
              "type": "address"
            },
            {
              "internalType": "enum Types.AztecAssetType",
              "name": "assetType",
              "type": "uint8"
            }
          ],
          "internalType": "struct Types.AztecAsset",
          "name": "",
          "type": "tuple"
        },
        {
          "components": [
            {
              "internalType": "uint256",
              "name": "id",
              "type": "uint256"
            },
            {
              "internalType": "address",
              "name": "erc20Address",
              "type": "address"
            },
            {
              "internalType": "enum Types.AztecAssetType",
              "name": "assetType",
              "type": "uint8"
            }
          ],
          "internalType": "struct Types.AztecAsset",
          "name": "outputAssetA",
          "type": "tuple"
        },
        {
          "components": [
            {
              "internalType": "uint256",
              "name": "id",
              "type": "uint256"
            },
            {
              "internalType": "address",
              "name": "erc20Address",
              "type": "address"
            },
            {
              "internalType": "enum Types.AztecAssetType",
              "name": "assetType",
              "type": "uint8"
            }
          ],
          "internalType": "struct Types.AztecAsset",
          "name": "",
          "type": "tuple"
        },
        {
          "internalType": "uint256",
          "name": "inputValue",
          "type": "uint256"
        },
        {
          "internalType": "uint256",
          "name": "",
          "type": "uint256"
        },
        {
          "internalType": "uint64",
          "name": "",
          "type": "uint64"
        }
      ],
      "name": "convert",
      "outputs": [
        {
          "internalType": "uint256",
          "name": "",
          "type": "uint256"
        },
        {
          "internalType": "uint256",
          "name": "",
          "type": "uint256"
        },
        {
          "internalType": "bool",
          "name": "",
          "type": "bool"
        }
      ],
      "stateMutability": "payable",
      "type": "function"
    },
    {
      "inputs": [
        {
          "components": [
            {
              "internalType": "uint256",
              "name": "id",
              "type": "uint256"
            },
            {
              "internalType": "address",
              "name": "erc20Address",
              "type": "address"
            },
            {
              "internalType": "enum Types.AztecAssetType",
              "name": "assetType",
              "type": "uint8"
            }
          ],
          "internalType": "struct Types.AztecAsset",
          "name": "",
          "type": "tuple"
        },
        {
          "components": [
            {
              "internalType": "uint256",
              "name": "id",
              "type": "uint256"
            },
            {
              "internalType": "address",
              "name": "erc20Address",
              "type": "address"
            },
            {
              "internalType": "enum Types.AztecAssetType",
              "name": "assetType",
              "type": "uint8"
            }
          ],
          "internalType": "struct Types.AztecAsset",
          "name": "",
          "type": "tuple"
        },
        {
          "components": [
            {
              "internalType": "uint256",
              "name": "id",
              "type": "uint256"
            },
            {
              "internalType": "address",
              "name": "erc20Address",
              "type": "address"
            },
            {
              "internalType": "enum Types.AztecAssetType",
              "name": "assetType",
              "type": "uint8"
            }
          ],
          "internalType": "struct Types.AztecAsset",
          "name": "",
          "type": "tuple"
        },
        {
          "components": [
            {
              "internalType": "uint256",
              "name": "id",
              "type": "uint256"
            },
            {
              "internalType": "address",
              "name": "erc20Address",
              "type": "address"
            },
            {
              "internalType": "enum Types.AztecAssetType",
              "name": "assetType",
              "type": "uint8"
            }
          ],
          "internalType": "struct Types.AztecAsset",
          "name": "",
          "type": "tuple"
        },
        {
          "internalType": "uint256",
          "name": "",
          "type": "uint256"
        },
        {
          "internalType": "uint64",
          "name": "",
          "type": "uint64"
        }
      ],
      "name": "finalise",
      "outputs": [
        {
          "internalType": "uint256",
          "name": "",
          "type": "uint256"
        },
        {
          "internalType": "uint256",
          "name": "",
          "type": "uint256"
        }
      ],
      "stateMutability": "payable",
      "type": "function"
    },
    {
      "inputs": [],
      "name": "rollupProcessor",
      "outputs": [
        {
          "internalType": "address",
          "name": "",
          "type": "address"
        }
      ],
      "stateMutability": "view",
      "type": "function"
    },
    {
      "inputs": [],
      "name": "yearnVault",
      "outputs": [
        {
          "internalType": "contract IYVault",
          "name": "",
          "type": "address"
        }
      ],
      "stateMutability": "view",
      "type": "function"
    },
    {
      "stateMutability": "payable",
      "type": "receive"
    }
  ],
  "bytecode": "0x60c060405234801561001057600080fd5b506040516110cd3803806110cd83398101604081905261002f9161004d565b6001600160601b0319606092831b8116608052911b1660a05261009e565b6000806040838503121561005f578182fd5b825161006a81610086565b602084015190925061007b81610086565b809150509250929050565b6001600160a01b038116811461009b57600080fd5b50565b60805160601c60a05160601c610fc5610108600039806101e552806102a7528061032552806103e2528061040652806104c5528061055b52806105e5528061063f52806106ef52806107c952508061010c528061013d528061057d52806106cd5250610fc56000f3fe60806040526004361061004e5760003560e01c80632a113d6e1461005a5780635254162b146100855780637224f4eb146100a75780639b07d342146100d45780639db5df46146100f557610055565b3661005557005b600080fd5b34801561006657600080fd5b5061006f61010a565b60405161007c9190610cbd565b60405180910390f35b610098610093366004610b5d565b61012e565b60405161007c93929190610f33565b3480156100b357600080fd5b506100c76100c2366004610c71565b6107b9565b60405161007c9190610d04565b6100e76100e2366004610bed565b6107bf565b60405161007c929190610f25565b34801561010157600080fd5b5061006f6107c7565b7f000000000000000000000000000000000000000000000000000000000000000081565b60008080336001600160a01b037f000000000000000000000000000000000000000000000000000000000000000016146101835760405162461bcd60e51b815260040161017a90610e2d565b60405180910390fd5b600261019560608c0160408d01610b3e565b60038111156101a057fe5b1480156101c7575060026101ba60608a0160408b01610b3e565b60038111156101c557fe5b145b6101e35760405162461bcd60e51b815260040161017a90610e9b565b7f00000000000000000000000000000000000000000000000000000000000000006001600160a01b031663fc0c546a6040518163ffffffff1660e01b815260040160206040518083038186803b15801561023c57600080fd5b505afa158015610250573d6000803e3d6000fd5b505050506040513d601f19601f820116820180604052508101906102749190610b02565b6001600160a01b031661028d60408a0160208b01610ae6565b6001600160a01b031614806102e257506001600160a01b037f0000000000000000000000000000000000000000000000000000000000000000166102d760408a0160208b01610ae6565b6001600160a01b0316145b6102fe5760405162461bcd60e51b815260040161017a90610df6565b600261031060608c0160408d01610b3e565b600381111561031b57fe5b1480156103d857507f00000000000000000000000000000000000000000000000000000000000000006001600160a01b031663fc0c546a6040518163ffffffff1660e01b815260040160206040518083038186803b15801561037c57600080fd5b505afa158015610390573d6000803e3d6000fd5b505050506040513d601f19601f820116820180604052508101906103b49190610b02565b6001600160a01b03166103cd60408c0160208d01610ae6565b6001600160a01b0316145b156105b6576104ab7f00000000000000000000000000000000000000000000000000000000000000006000197f00000000000000000000000000000000000000000000000000000000000000006001600160a01b031663fc0c546a6040518163ffffffff1660e01b815260040160206040518083038186803b15801561045d57600080fd5b505afa158015610471573d6000803e3d6000fd5b505050506040513d601f19601f820116820180604052508101906104959190610b02565b6001600160a01b0316919063ffffffff6107eb16565b60405163b6b55f2560e01b81526000906001600160a01b037f0000000000000000000000000000000000000000000000000000000000000000169063b6b55f25906104fa908a90600401610f1c565b602060405180830381600087803b15801561051457600080fd5b505af1158015610528573d6000803e3d6000fd5b505050506040513d601f19601f8201168201806040525081019061054c9190610c89565b90506105a86001600160a01b037f0000000000000000000000000000000000000000000000000000000000000000167f00000000000000000000000000000000000000000000000000000000000000008363ffffffff6108d916565b9250600091508190506107ac565b60026105c860608c0160408d01610b3e565b60038111156105d357fe5b14801561062057506001600160a01b037f00000000000000000000000000000000000000000000000000000000000000001661061560408c0160208d01610ae6565b6001600160a01b0316145b1561079457604051632e1a7d4d60e01b81526000906001600160a01b037f00000000000000000000000000000000000000000000000000000000000000001690632e1a7d4d90610674908a90600401610f1c565b602060405180830381600087803b15801561068e57600080fd5b505af11580156106a2573d6000803e3d6000fd5b505050506040513d601f19601f820116820180604052508101906106c69190610c89565b90506105a87f0000000000000000000000000000000000000000000000000000000000000000827f00000000000000000000000000000000000000000000000000000000000000006001600160a01b031663fc0c546a6040518163ffffffff1660e01b815260040160206040518083038186803b15801561074657600080fd5b505afa15801561075a573d6000803e3d6000fd5b505050506040513d601f19601f8201168201806040525081019061077e9190610b02565b6001600160a01b0316919063ffffffff6108d916565b60405162461bcd60e51b815260040161017a90610d79565b9750975097945050505050565b50600090565b600080600080fd5b7f000000000000000000000000000000000000000000000000000000000000000081565b600061087b82856001600160a01b031663dd62ed3e30876040518363ffffffff1660e01b815260040161081f929190610cd1565b60206040518083038186803b15801561083757600080fd5b505afa15801561084b573d6000803e3d6000fd5b505050506040513d601f19601f8201168201806040525081019061086f9190610c89565b9063ffffffff6108fd16565b90506108d38463095ea7b360e01b858460405160240161089c929190610ceb565b60408051601f198184030181529190526020810180516001600160e01b03166001600160e01b031990931692909217909152610929565b50505050565b6108f88363a9059cbb60e01b848460405160240161089c929190610ceb565b505050565b6000828201838110156109225760405162461bcd60e51b815260040161017a90610d42565b9392505050565b606061097e826040518060400160405280602081526020017f5361666545524332303a206c6f772d6c6576656c2063616c6c206661696c6564815250856001600160a01b03166109b89092919063ffffffff16565b8051909150156108f8578080602001905181019061099c9190610b1e565b6108f85760405162461bcd60e51b815260040161017a90610ed2565b60606109c784846000856109cf565b949350505050565b6060824710156109f15760405162461bcd60e51b815260040161017a90610db0565b6109fa85610a90565b610a165760405162461bcd60e51b815260040161017a90610e64565b60006060866001600160a01b03168587604051610a339190610ca1565b60006040518083038185875af1925050503d8060008114610a70576040519150601f19603f3d011682016040523d82523d6000602084013e610a75565b606091505b5091509150610a85828286610a96565b979650505050505050565b3b151590565b60608315610aa5575081610922565b825115610ab55782518084602001fd5b8160405162461bcd60e51b815260040161017a9190610d0f565b600060608284031215610ae0578081fd5b50919050565b600060208284031215610af7578081fd5b813561092281610f77565b600060208284031215610b13578081fd5b815161092281610f77565b600060208284031215610b2f578081fd5b81518015158114610922578182fd5b600060208284031215610b4f578081fd5b813560048110610922578182fd5b60008060008060008060006101e0888a031215610b78578283fd5b610b828989610acf565b9650610b918960608a01610acf565b9550610ba08960c08a01610acf565b9450610bb0896101208a01610acf565b935061018088013592506101a088013591506101c088013567ffffffffffffffff81168114610bdd578182fd5b8091505092959891949750929550565b6000806000806000806101c08789031215610c06578182fd5b610c108888610acf565b9550610c1f8860608901610acf565b9450610c2e8860c08901610acf565b9350610c3e886101208901610acf565b925061018087013591506101a087013567ffffffffffffffff81168114610c63578182fd5b809150509295509295509295565b600060208284031215610c82578081fd5b5035919050565b600060208284031215610c9a578081fd5b5051919050565b60008251610cb3818460208701610f4b565b9190910192915050565b6001600160a01b0391909116815260200190565b6001600160a01b0392831681529116602082015260400190565b6001600160a01b03929092168252602082015260400190565b901515815260200190565b6000602082528251806020840152610d2e816040850160208701610f4b565b601f01601f19169190910160400192915050565b6020808252601b908201527f536166654d6174683a206164646974696f6e206f766572666c6f770000000000604082015260600190565b60208082526018908201527f596561726e4272696467653a20554e535550504f525445440000000000000000604082015260600190565b60208082526026908201527f416464726573733a20696e73756666696369656e742062616c616e636520666f6040820152651c8818d85b1b60d21b606082015260800190565b6020808252601b908201527f596561726e4272696467653a20494e56414c49445f4f55545055540000000000604082015260600190565b6020808252601b908201527f596561726e4272696467653a20494e56414c49445f43414c4c45520000000000604082015260600190565b6020808252601d908201527f416464726573733a2063616c6c20746f206e6f6e2d636f6e7472616374000000604082015260600190565b60208082526019908201527f596561726e4272696467653a20494e56414c49445f43414c4c00000000000000604082015260600190565b6020808252602a908201527f5361666545524332303a204552433230206f7065726174696f6e20646964206e6040820152691bdd081cdd58d8d9595960b21b606082015260800190565b90815260200190565b918252602082015260400190565b92835260208301919091521515604082015260600190565b60005b83811015610f66578181015183820152602001610f4e565b838111156108d35750506000910152565b6001600160a01b0381168114610f8c57600080fd5b5056fea264697066735822122054bda0f111e3d90088f605ef28221ce05bc2dc9b2e66d37cdde7c77cf9e1aa3264736f6c634300060a0033",
  "linkReferences": {},
  "deployedLinkReferences": {}
}